:020000040002F8
:1070000030F70020D9B30300E1B30300C9870200C1
:10701000E5B30300E7B30300E9B303000000000099
:10702000000000000000000000000000EBB30300BF
:10703000EDB30300000000000F87020015C8020036
:107040009DB20300F3B30300E58803009DEA03004B
:10705000F3B30300F3B303001BE00300F3B3030037
:10706000F3B30300F3B30300F3B30300F3B303007C
:10707000F3B30300F3B30300F3B30300F3B303006C
:10708000F3B3030073E50300F3B30300F3B30300AA
:10709000F3B30300F3B30300AB080400F3B303003E
:1070A000F3B30300F3B30300F3B30300F3B303003C
:1070B000F3B30300F3B3030000000000000000007E
:1070C000F3B30300F3B30300F3B30300F3B303001C
:1070D000F3B30300F3B30300F3B30300F3B303000C
:1070E000F3B30300F3B30300F3B3030000000000A5
:1070F00000000000F3B3030000000000C99103008A
:10710000000000000000000000000000000000007F
:10711000000000000000000000000000000000006F
:10712000000000000000000000000000000000005F
:10713000000000000000000000000000000000004F
:10714000000000000000000000000000000000003F
:10715000000000000000000000000000000000002F
:10716000000000000000000000000000000000001F
:10717000000000000000000000000000000000000F
:1071800000000000000000000000000000000000FF
:1071900000000000000000000000000000000000EF
:1071A00000000000000000000000000000000000DF
:1071B00000000000000000000000000000000000CF
:1071C00000000000000000000000000000000000BF
:1071D00000000000000000000000000000000000AF
:1071E000000000000000000000000000000000009F
:1071F000000000000000000000000000000000008F
:1072000000F002F800F06DF80AA090E8000C82444B
:107210008344AAF10107DA4501D100F062F8AFF228
:10722000090EBAE80F0013F0010F18BFFB1A43F064
:1072300001031847B0AE0200D0AE02000A444FF07E
:10724000000C10F8013B13F0070408BF10F8014BC5
:107250001D1108BF10F8015B641E05D010F8016B0A
:10726000641E01F8016BF9D113F0080F1EBF10F86E
:10727000014BAD1C0C1B09D16D1E58BF01F801CB91
:10728000FAD505E014F8016B01F8016B6D1EF9D514
:107290009142D6D370470000002300240025002629
:1072A000103A28BF78C1FBD8520728BF30C148BF69
:1072B0000B607047642926F0D982782926F0128362
:1072C000002070471FB527F009F826F02DFE0400B6
:1072D0000020002126F0ECFF401C60601FBD10B5AF
:1072E00010BD26F0A2FF1146FFF7ECFF0BF0E2FD08
:1072F00026F0CEFF03B4FFF7F2FF03BC01F0D2F893
:10730000EFF308807047EFF30980704768467047D5
:10731000EFF308807047EFF30980704768467047C5
:1073200080F309887047000030B4044654E8000F29
:107330000D4644E80053002BF8D1156030BC70476F
:1073400030B4044654E8000F40EA010544E8005315
:10735000002BF7D1156030BC704730B4044654E8B8
:10736000000F00EA010544E80053002BF7D1156037
:1073700030BC704730B4044654E8000F80EA010581
:1073800044E80053002BF7D1156030BC704730B48F
:10739000044654E8000F00EB010544E80053002BBD
:1073A000F7D1156030BC704730B4044654E8000F84
:1073B000A0EB010544E80053002BF7D1156030BC69
:1073C000704770B404464FF0000054E8006F0D6839
:1073D000AE4207BF44E80023012044E800630E608A
:1073E000002B1CBF0020F0E770BC704730B404468F
:1073F00054E8000F88422CBF451A054644E8005364
:10740000002BF5D1156030BC704710B50124002168
:10741000102003F044F80FE00121102003F052F88F
:107420004FF4FA7010F039F90021102003F04AF8F7
:107430004FF4FA7010F031F9201E04F10104EBD181
:1074400010BD000070B504460E46154620222146A8
:10745000FE4826F0F9FC20223146FD4826F0F4FCD7
:1074600020222946FB4826F0EFFCFB48FB49086038
:10747000FB480968401AFB490860FB48FB49086063
:10748000FB480968401AFB490860F648006848B99B
:10749000F9480122F9A10368032025F05DFF26F0D9
:1074A000D7F870BD0120F649087000BFF9E70EB5A6
:1074B000E848E749E54ACDE900210290EE4801227B
:1074C000EEA14368032025F047FF26F0C1F80EBD6A
:1074D0007CB506460C4615466CB9EA48EAA1EDA310
:1074E0000122CDE90010E5A1032025F035FF26F0AB
:1074F000AFF800BFFEE76DB9E248EEA1E5A30122B7
:10750000CDE90010DDA1032025F026FF26F0A0F82C
:1075100000BFFEE70FF0AAFC806A20600FF0A6FC17
:10752000C06A28600FF0A2FCC06930607CBD10B555
:107530000FF09CFC10BD2DE9FC4105460E4614469B
:107540001027DE480078F8B1DD48007850B1CA480D
:1075500000940122C9A18369032025F0FDFE26F0D5
:1075600077F809E0C44800940122C4A1C36903204C
:1075700025F0F2FE26F06CF8AC4201D22C4603E076
:10758000A819A04200D2AC19BB480122BBA10369D3
:10759000032025F0E1FE26F05BF80CE02068C9A38B
:1075A0000122B6A1CDE90040032025F0D5FE26F04A
:1075B0004FF8241D7F1EA819A04201D9002FEDD13C
:1075C000C8A30122ADA1032025F0C6FE26F040F895
:1075D000BDE8FC8101460B884A8802F47840B0F58A
:1075E000784F06D103F47840B0F5704F01D10120F7
:1075F000704702F47F40B0F58E4F01D10120F7E7CC
:107600000020F5E72DE9F0470746884614469946DD
:10761000DDF820A0002621E02068051F05F001000C
:1076200000B91AE02068451E90480068001D854298
:1076300012D38E4800688F4909680844A8420BD3CA
:10764000202E09D2281FFFF7C5FF28B1464503D2D7
:107650003046761C47F8205000BF241D09EB0A0075
:10766000A042D9D83046BDE8F0872DE9FE4F064646
:1076700088461746794800680290002579480068D6
:107680000090A946A148007848B38C480078E8B932
:107690009F48826928466D1C46F820209C48406916
:1076A000441E72480068844210D3704800687149D3
:1076B00009680844A04209D3202D07D2454505D2C8
:1076C00028466D1C46F820404FF001097C480078A0
:1076D00088B16A4602A901A8FFF7FAFE0BE0FFF79E
:1076E00015FE8246FFF70FFE824504D16A4602A9C5
:1076F00001A8FFF7EDFE7148007800B1029F2AE073
:107700003868041F04F0010000B923E03868441E03
:1077100056480068001D84421BD3544800685549F0
:1077200009680844A04214D3202D12D2201FFFF76D
:1077300051FF70B145450CD2022D06D1B9F1000FB1
:1077400003D07068A04200D104E028466D1C46F8C2
:10775000204000BF3F1D009902980844B842CFD88E
:107760002846BDE8FE8F70B5A4B0064600258021EE
:1077700004A826F042FB3246202104A8FFF775FF3B
:107780000546002410E004A951F8242004EBC401AC
:10779000604BC81860A126F02DF8202104EBC4002E
:1077A00008305C4A1154641CAC42ECD395B1594981
:1077B00005EBC5005AA2254BCDE90032CDE9020107
:1077C0002D4801222DA1036A032025F0C5FD25F0D7
:1077D0003FFF08E02848012228A1436A032025F042
:1077E000BBFD25F035FF24B070BD7FB50446FFF723
:1077F0008DFD05462248007868B94B484BA125A36A
:107800000122CDE900101DA1032025F0A5FD25F0E2
:107810001FFF00BFFEE747A3012218A1032025F0A8
:107820009BFD25F015FFFFF742FEFFF769FDA8421B
:107830000AD11148012211A1C368032025F08CFD53
:1078400025F006FF224677E07DE00000F42F0020BF
:10785000153000203630002030B70020E82A002004
:1078600030F70020EC2A002000700200F02A0020EF
:1078700064220500F42A0020E8E20400636D62003F
:10788000F82A002080E3040073746172745F6164FD
:107890006472000028257329206861732061737366
:1078A000657274206661696C65642061742025735B
:1078B0002E00000073697A6500000000FA2A00209B
:1078C000FC2A00202020616464723A202530386C44
:1078D0007820202020646174613A202530386C784B
:1078E000000000003D3D3D3D3D3D3D3D3D3D3D3DBC
:1078F0003D3D3D3D3D3D3D3D3D3D3D3D3D3D3D3DB8
:107900003D3D3D3D3D3D3D3D00000000F92A00204C
:1079100078310020573000202530386C7800000086
:107920002E617866000000009AE30400696E6974B5
:107930005F6F6B0020000000F9480168F94800689B
:10794000FFF7F9FD1CE0FFF7DEFCA84218D1FFF7B6
:10795000EEFD06460090F4480122AFF2E001836894
:10796000032025F0F9FC25F073FE01AA02A903A863
:10797000FFF7AEFD2246DDE90110FFF7DCFD00BF99
:107980002046FFF7F0FE7FBD08B5E84890F83800C4
:10799000C0F3400048B1E4480122AFF22011436B2C
:1079A000032025F0D9FC25F053FEE048806BC0F39E
:1079B000807000287ED0DD4890F8240000286ED02A
:1079C000DA4890F8240000F0010048B1D6480122BE
:1079D000AFF25811836B032025F0BEFC25F038FE72
:1079E000D24890F82400C0F3400048B1CE480122AC
:1079F000AFF27811C36B032025F0AEFC25F028FE12
:107A0000CA4890F82400C0F3C00048B1C64801221B
:107A1000AFF29811036C032025F09EFC25F018FEB0
:107A2000C24890F82400C0F3001048B1BE480122BB
:107A3000AFF2B811436C032025F08EFC25F008FE50
:107A4000BA4890F82400C0F3401048B1B64801226B
:107A5000AFF2D811836C032025F07EFC25F0F8FDF1
:107A6000B24890F82400C009C8B1B04890F824008A
:107A700000F0010028B9AD4890F82400C0F34000A0
:107A800068B1AA48806A0090A7480122AFF2142189
:107A9000D0F89030032025F05FFC25F0D9FDA348F5
:107AA00090F82C0000287AD0A04890F82C0000F024
:107AB000010000E0D5E048B19B480122AFF244212B
:107AC000C36C032025F048FC25F0C2FD974890F8D0
:107AD0002C00C0F3400048B193480122AFF264216A
:107AE000036D032025F038FC25F0B2FD8F4890F897
:107AF0002C00C0F3800048B18B480122AFF28421F2
:107B0000436D032025F028FC25F0A2FD874890F85E
:107B10002C00C0F3C00048B183480122AFF2A42179
:107B2000836D032025F018FC25F092FD7F4890F826
:107B30002C00C0F3001048B17B480122AFF2C421F1
:107B4000C36D032025F008FC25F082FD774890F8EE
:107B50002C00C0F3401048B173480122AFF2E42179
:107B6000036E032025F0F8FB25F072FD6F4890F8B6
:107B70002C00C00998B16D4890F82C00C0F340006B
:107B800068B16A48006B009067480122AFF2143177
:107B9000D0F89430032025F0DFFB25F059FD634831
:107BA000808E00285DD0614890F8340000F001001C
:107BB00048B15D480122AFF23C31436E032025F00D
:107BC000CBFB25F045FD594890F83400C0F3400048
:107BD00048B155480122AFF25C31836E032025F095
:107BE000BBFB25F035FD514890F83400C0F3800010
:107BF00048B14D480122AFF27C31C36E032025F01D
:107C0000ABFB25F025FD494890F83400C0F3C000D7
:107C100048B145480122AFF29C31036F032025F0A3
:107C20009BFB25F015FD4148808EC0F3002048B134
:107C30003D480122AFF2BC31436F032025F08CFB9D
:107C400025F006FD3948808EC0F3402048B1364803
:107C50000122AFF2D831836F032025F07DFB25F0A0
:107C6000F7FC3248806BC00F002857D02F48C06BFC
:107C7000002853D02D4890F83C0000F0010048B196
:107C800029480122AFF20C41C36F032025F064FBA9
:107C900025F0DEFC254890F83C00C0F3400050B1D0
:107CA00021480122AFF22C41D0F88030032025F08A
:107CB00053FB25F0CDFC1D4890F83C00C0F380003C
:107CC00050B119480122AFF24C41D0F88430032062
:107CD00025F042FB25F0BCFC144890F83C00C0F3B2
:107CE000C00050B110480122AFF27041D0F8883086
:107CF000032025F031FB25F0ABFC0C4890F83C004C
:107D0000C0F3001050B108480122AFF29041D0F802
:107D10008C30032025F020FB25F09AFC08BD0000E4
:107D2000EC2A0020E82A0020E8E204007831002054
:107D30000246012020EA12109B4B1870184600786A
:107D4000012802D101F1480070470846FCE72DE9FF
:107D5000F04194B007460E46344625460020139065
:107D6000202292490BA825F0ECFF914800680A9068
:107D70009048006809909048007880B98F48AFF229
:107D80005441AFF2F0430122CDE90010AFF214519B
:107D9000032025F0E1FA25F05BFC00BFFEE78848F0
:107DA000007878B1854887A1AFF218530122CDE958
:107DB0000010AFF23851032025F0CEFA25F048FC30
:107DC00000BFFEE701207E490870AFF29843012210
:107DD000AFF25851032025F0BFFA25F039FCFFF728
:107DE00066FBC7F380007A49087008460078E0B166
:107DF000FFF79DFB10B1FFF79AFB00E075A08046EE
:107E0000009076480122AFF28C51836A032025F05E
:107E1000A3FA25F01DFCFFF776FA0446054609AAE9
:107E20000AA913A8FFF754FB09E06C480122AFF23E
:107E3000B451C36A032025F08FFA25F009FC2034E1
:107E400021463846FFF774FF04460A98844204D35B
:107E5000DDE909100844A04216D2DDE90910084402
:107E60000A995F4B0122CDE900410290AFF2F45133
:107E7000032025F071FA25F0EBFB01205949087029
:107E80005348007800B1139C2246DDE90910FFF742
:107E900052FB52480122AFF21C61036B032025F014
:107EA0005BFA25F0D5FB504928680860686848608F
:107EB000A8688860E868C8602869086168694861DE
:107EC000A8698861E869C8610846C068464A0E9991
:107ED00092680D9BCDE90432CDE906104248426814
:107EE00041490C9809680B9BCDE90031CDE90202AC
:107EF0003EA30122AFF27C61032025F02DFA25F08C
:107F0000A7FB3948C169129A8069119BCDE90430F9
:107F1000CDE9062134484269109900690F9BCDE9EB
:107F20000030CDE9021231A30122AFF2B06103208B
:107F300025F012FA25F08CFB37A30122AFF2C461C1
:107F4000032025F009FA25F083FB43480068264901
:107F500008624148001D007881F824003E48103036
:107F6000006888623C48401D007881F82C003A483F
:107F70001430006808633848801D008888863648B9
:107F800008300068886334480C300088C863324881
:107F9000183000880864FFF7F7FC2046FFF7E3FB82
:107FA00014B0BDE8F0810000FB2A0020C4E3040007
:107FB000E82A0020EC2A0020F82A0020AEE3040082
:107FC000F92A0020216F6E5F6661756C74000000F5
:107FD000FC2A00204E4F5F4E414D4500E8E2040070
:107FE00094050500FA2A002078310020202025730E
:107FF0003A2025303878202025733A2025303878EB
:10800000202025733A2025303878202025733A2007
:1080100025303878000000003D3D3D3D3D3D3D3D73
:108020003D3D3D3D3D3D3D3D3D3D3D3D3D3D3D3D80
:108030003D3D3D3D3D3D3D3D3D3D3D3D3D3D3D3D70
:108040003D3D3D3D3D3D3D3D3D3D3D3D3D3D3D3D60
:108050003D3D3D3D3D3D000024ED00E038B50CF0D8
:1080600041FF09F05DF9FFF756F92830FFF758F99D
:108070000625FFF753F950F8254014F10F0F10D0E3
:10808000E01D0ED0E01C0CD014F11F0F09D014F12C
:10809000170F06D014F1130F03D06D1CEDB2142D81
:1080A000E7D9FFF73BF96D1C00EB85012046FFF790
:1080B0004EFE0AF050FE009058A301225EA103205C
:1080C00025F04AF925F0C4FABDE838400CF01FBF8E
:1080D000FEB506460D4614460CF004FF09F020F9E3
:1080E00054A3012254A1032025F036F925F0B0FA5B
:1080F000CDE9006551A301224FA10320029425F090
:108100002BF925F0A5FAFFF709F9FFF76EFB0AF046
:1081100022FE009041A3012247A1032025F01CF973
:1081200025F096FABDE8FE400CF0F1BE08B501213D
:108130000091FFF793FF9DF800000128FBD000207D
:1081400008BD08B501230093FFF7C2FF9DF80000AA
:108150000128FBD008BD10B5414C2068002801D093
:10816000002010BD3FA23FA13FA0FFF76BF941489F
:1081700000F079FB40480DF0A8FD012020600020B0
:1081800010BD38B50D463D4C022804DA3CA00DF078
:10819000DFF9002038BD48A1686825F081FE58B19C
:1081A00048A1686825F07CFEA8B149A1686825F05F
:1081B00077FE00282AD02FE0206840F010002060D1
:1081C0000A241CA00DF008FB94FBF0F142A00DF076
:1081D000BFF9002038BD206840F008002060002171
:1081E000086800903EA0009A0DF0B2F904210868DA
:1081F00000903BA0009A0DF0ABF9032108680090B5
:1082000037A0009A0DF0A4F9002038BD4FF4A972F0
:108210003A493BA00DF0BFF9002038BD437572729A
:10822000656E742073797374656D207469636B3A3D
:1082300020256C6400000000636D6200282573290E
:108240002068617320617373657274206661696C64
:1082500065642061742025733A256C642E0000004B
:10826000002B0020312E300072742D74687265610D
:10827000640000002D8102004381020014ED00E043
:10828000506C6561736520696E7075742027636D2D
:10829000625F74657374203C44495642595A455292
:1082A0004F7C554E414C49474E45447C41535345C4
:1082B00052543E27200A000044495642595A45521A
:1082C0004F000000554E414C49474E4544000000C8
:1082D00041535345525400007A3A25640A00000085
:1082E000616464723A3078253032582076616C755A
:1082F000653A3078253038580D0A0000E4E3040070
:10830000300000002DE9F04107460C460025774972
:10831000384625F0C5FD10B90020BDE8F08174494C
:10832000384625F0BDFD08B90120F6E77149384609
:1083300025F0B6FD08B90220EFE704F0020080B195
:1083400004F0040018B140F24220054316E004F0A6
:10835000080018B140F2424005430FE045F0020525
:108360000CE004F0040018B140F24120054305E0A0
:1083700004F0080010B140F24140054300222946B4
:10838000384607F0A5FA0646002E02DA4FF0FF3015
:10839000C3E73046C1E710B50446022C01DC0020DB
:1083A00010BD204607F0C2FAFAE72DE9FC41044669
:1083B0000F461646984664B94FA05E495EA3012257
:1083C000CDE900105EA1042024F0C6FF0020BDE826
:1083D000FC81012C01D0022C02D14FF0FF30F6E7D6
:1083E00032463946204607F0C3FA0546002D01DB28
:1083F000701BECE70020EAE72DE9F04704460F4642
:1084000016469946012C01D0022C0FD10DF04CFBE1
:108410008046B8F1000F06D033463A464FF0FF31A0
:10842000404600F04AFE0020BDE8F08714B94FF046
:10843000FF30F9E732463946204607F0C1FA0546D3
:10844000002D04DB204607F08BFB701BECE70020BF
:10845000EAE710B50446204607F082FB10BD70B570
:1084600004460D46022C01DA002070BD0022294688
:10847000204607F0CDFAF8E770B506460C461546DB
:10848000234634A2294630460DF0DDFA012070BDA6
:1084900002460020704710B50446E1B22FA00DF04F
:1084A00057F810BD0446204600F05AF800BFFEE71A
:1084B00010B590B00446022C02DA002010B010BDB6
:1084C0006946204607F023FB0598F7E70146002997
:1084D00003DB022901DC012070470020FCE710B516
:1084E0000446204607F0F1FA10BD0000EDE3040059
:1084F000F3E30400FAE30400506C656173652065E2
:108500006E61626C652052545F5553494E475F500F
:108510004F5349585F465320616E642052545F5553
:1085200053494E475F504F5349585F535444494F46
:108530000000000001E4040025733A2025730000C8
:1085400061726D6C6962632E73797363616C6C73B5
:108550000000000074656D25303364002563000061
:108560007CB505460EF082FC044664B155A3012299
:1085700059A10420CDE9004524F0EEFE002201219E
:1085800020460FF094F87CBD70B504463CB12046FF
:108590000DF022F905462946204608F004FB00208C
:1085A00070BDF0B589B005460E46694616B9002083
:1085B00009B0F0BD242A01DC012A01DC0020F7E724
:1085C0000A2A03D1002D01DA012000E000208446B0
:1085D000BCF1000F01D06C4200E02C4610E0B4FB6F
:1085E000F2F002FB1047B4FBF2F40A2F04DA07F1B1
:1085F000300001F8010B03E007F1570001F8010B0F
:10860000002CECD168468142E9D03346BCF1000F22
:1086100002D02D2003F8010B04E0481E014600782B
:1086200003F8010B68468142F7D8002018703046E5
:10863000BEE770B504460D4616463246294620462A
:10864000FFF7AFFF70BDF0B589B007460B4669462E
:108650003E4613B9002009B0F0BD242A01DC012AEE
:1086600001DC0020F7E710E0B6FBF2F002FB10643B
:10867000B6FBF2F60A2C04DA04F1300001F8010B23
:1086800003E004F1570001F8010B002EECD168461D
:108690008142E9D01D4604E0481E0146007805F8F5
:1086A000010B68468142F7D8002028701846D2E7AF
:1086B00070B504460D461646324629462046FFF759
:1086C000C2FF70BD7468726561643A257320657875
:1086D00069743A25642100007374646C6962000057
:1086E000EFF3108072B6704780F310887047444AE9
:1086F0001368012B04D04FF001031360414A10604E
:10870000414A116041484FF0805101607047EFF3DA
:10871000108272B63A48016851B34FF0000101600F
:108720003848016891B1EFF309811EF0100F08BFBE
:1087300021ED108B21E9F00F4FF000041EF0100F17
:1087400008BF012441F8044D006801602E49096802
:10875000096808C9B1E8F00F002B18BFB1EC108B05
:1087600081F309884EF0100E002B18BF2EF0100E6A
:1087700082F310884EF0040E704723490860EFF32F
:10878000148222F0040282F314881E494FF0000084
:1087900008601B494FF0010008601D481D49D0F8D2
:1087A000002041EA0201016018484FF08051016049
:1087B00019480068006880F3088861B662B6BFF3A4
:1087C0004F8FBFF36F8F70471EF0040F0CBFEFF396
:1087D0000880EFF3098020E9F00F40F804ED40F83D
:1087E00004ED1EF0040F0CBF80F3088880F30988A5
:1087F00000B500F02AF95DF804EB4EF0040E704766
:108800000C2B0020042B0020082B002004ED00E09E
:1088100020ED00E00000FFFF08ED00E0F0B50446A9
:108820000D461646301D20F0070044380146002250
:1088300003E0BF4F41F82270521C112AF9D34D6258
:108840004FF0000CC1F828C0C1F82CC0C1F830C0EE
:10885000C1F834C08B63CC634FF0807CC1F840C05A
:1088600000270F60F0BDB3490860704710B5B2A093
:108870000CF06EFEB4480188B4A00CF069FEB2485A
:10888000008800F0010010B1B6A00CF061FEAE4807
:10889000008800F0020010B1B5A00CF059FEAA4803
:1088A000008800F0040010B1B4A00CF051FEA648FE
:1088B000008800F0080010B1B2A00CF049FEA248F8
:1088C000008800F4807010B1B0A00CF041FE9E480A
:1088D000008800F4007010B1AFA00CF039FE99A030
:1088E0000CF036FE10BD10B5AEA00CF031FE96486F
:1088F000401E0178AEA00CF02BFE9348401E00787D
:1089000000F0010010B1B0A00CF022FE8E48401E15
:10891000007800F0020010B1AEA00CF019FE8A48F9
:10892000401E007800F0040010B1ADA00CF010FE65
:108930008548401E007800F0080010B1ACA00CF093
:1089400007FE8148401E007800F0100010B1ABA077
:108950000CF0FEFD7C48401E007800F0800030B135
:1089600079480E300168A7A00CF0F2FD02E075A076
:108970000CF0EEFD10BD10B5A6A00CF0E9FD72489C
:10898000801E0178A8A00CF0E3FD6F48801E0078DF
:1089900000F0010010B1AAA00CF0DAFD6A48801EB8
:1089A000007800F0020010B1A8A00CF0D1FD6648DC
:1089B000801E007800F0080010B1A7A00CF0C8FDE0
:1089C0006148801E007800F0100010B1A5A00CF0E6
:1089D000BFFD5D48801E007800F0800030B15A482D
:1089E0000A300168A2A00CF0B3FD02E055A00CF023
:1089F000AFFD10BD10B55448801C006800F00200A7
:108A000010B19FA00CF0A4FD4F48801C006800F03E
:108A1000804080B14C48401E007808B1FFF763FFEA
:108A20004948801E007808B1FFF7A5FF4648008836
:108A300008B1FFF71BFF4448801C006800F00040AD
:108A400010B195A00CF084FD10BD2DE9F041054654
:108A500005F128062C1D3748006840B130463549DD
:108A60000968884707460FB9BDE8F08100BF8EA0AE
:108A7000216C0CF06DFD90A0616A0CF069FD92A074
:108A8000A16A0CF065FD94A0E16A0CF061FD96A06E
:108A9000216B0CF05DFD98A061680CF059FD9AA067
:108AA000A1680CF055FD9CA0E1680CF051FD9EA062
:108AB00021690CF04DFDA0A061690CF049FDA2A058
:108AC000A1690CF045FDA4A0E1690CF041FDA6A050
:108AD000216A0CF03DFDA8A0616B0CF039FDAAA045
:108AE000A16B0CF035FDACA0E16B0CF031FD2878EA
:108AF00000F0040048B10EF0B9F907463946AAA0C3
:108B00000CF026FD08F00CFC02E0AFA00CF020FDFC
:108B1000287800F0100010B9B2A00CF019FDFFF792
:108B200069FF00BFFEE7B34807491E390860704778
:108B3000EFBEADDE102B00207573616765206661A6
:108B4000756C743A0A0000002AED00E05343425F5E
:108B5000434653525F554653523A30782530325887
:108B600020000000554E444546494E5354522000C3
:108B7000494E56535441544520000000494E56502A
:108B8000432000004E4F435020000000554E414C02
:108B900049474E454420000044495642595A4552DF
:108BA0004F200000627573206661756C743A0A008C
:108BB0005343425F434653525F424653523A3078E2
:108BC000253032582000000049425553455252206A
:108BD00000000000505245434953455252200000C6
:108BE000494D505245434953455252200000000020
:108BF000554E53544B4552522000000053544B45A0
:108C0000525220005343422D3E424641523A2530B3
:108C100038580A006D656D206D616E61676520666C
:108C200061756C743A0A00005343425F43465352E5
:108C30005F4D4653523A30782530325820000000BC
:108C40004941434356494F4C2000000044414343AF
:108C500056494F4C200000004D554E53544B455241
:108C6000522000004D53544B45525220000000004A
:108C70005343422D3E4D4D41523A253038580A005B
:108C80006661696C656420766563746F72206665E1
:108C90007463680A00000000646562756720657689
:108CA000656E740A000000007073723A20307825F7
:108CB0003038780A000000007230303A20307825D1
:108CC0003038780A000000007230313A20307825C0
:108CD0003038780A000000007230323A20307825AF
:108CE0003038780A000000007230333A203078259E
:108CF0003038780A000000007230343A203078258D
:108D00003038780A000000007230353A203078257B
:108D10003038780A000000007230363A203078256A
:108D20003038780A000000007230373A2030782559
:108D30003038780A000000007230383A2030782548
:108D40003038780A000000007230393A2030782537
:108D50003038780A000000007231303A203078252F
:108D60003038780A000000007231313A203078251E
:108D70003038780A000000007231323A203078250D
:108D80003038780A00000000206C723A20307825D4
:108D90003038780A000000002070633A20307825CF
:108DA0003038780A000000006861726420666175DE
:108DB0006C74206F6E207468726561643A2025734C
:108DC0000D0A0D0A0000000068617264206661757A
:108DD0006C74206F6E2068616E646C65720D0A0D94
:108DE0000A00000046505520616374697665210DC4
:108DF0000A0000000400FA0510B5044609212046C7
:108E00000DF04CFD10BD70B504460D46164614B964
:108E10006FF0FE0070BD2846FFF7EEFF10B16FF057
:108E2000FE00F7E72A46092120460DF03CFCE682C9
:108E30000020A076208300BFECE710B5044624B9DB
:108E40005F22DF49DFA00CF0A6FB20460DF019FDE4
:108E5000092804D06022DA49DEA00CF09CFB2046F1
:108E60000DF0FEFC20B96122D549E9A00CF093FB7E
:108E700020460DF05BFC002010BD2DE9F0410646B8
:108E80000C464027E01D20F00704274438460CF02C
:108E90004AFD05462DB14022002128460CF0F6FB84
:108EA0002E752846BDE8F08110B5044624B99D22F0
:108EB000E149C4A00CF06FFB20460DF0E2FC09284C
:108EC00004D09E22DC49C3A00CF065FB20460DF0C7
:108ED000C7FC20B19F22D849D8A00CF05CFB2046EB
:108EE0000DF024FC20460CF062FE10BD7CB504465B
:108EF000002524B9B422DE49B2A00CF04CFB606A14
:108F0000A8B1A07D00F0100088B92046616A8847AA
:108F1000054645B1D7A30122E4A10320CDE90045D0
:108F200024F01AFA03E0E08A40F01000E0822846BC
:108F30007CBD7CB504460E46002524B9D922DF4904
:108F4000A0A00CF028FB20460DF09BFC092804D0C3
:108F5000DA22DA499FA00CF01EFBA07D00F0100081
:108F6000A0B9606A70B12046616A884705464DB174
:108F7000C0A30122CDA10320CDE9004524F0ECF9E6
:108F800028467CBDE08A40F01000E082A07D00F021
:108F9000080030B1207E00F0080010B16FF016001C
:108FA000EFE7207E00F0080030B1208B40F60F7113
:108FB0000840314088420BD0A06A28B13146204693
:108FC000A26A9047054603E040F60F7030402083C8
:108FD00015B105F12D0070B9208B40F008002083F9
:108FE000A07E401CA076A07E28B94FF48672B349BB
:108FF000B3A00CF0D0FA2846C3E770B504460025AC
:109000002CB940F21F12B3496EA00CF0C4FA2046EE
:109010000DF037FC092805D04FF49072AD496DA0D2
:109020000CF0B9FAA07E10B96FF0FE0070BDA07E02
:10903000401EA076A07E08B10020F7E7E06A18B1D4
:109040002046E16A8847054615B105F12D0008B9AB
:10905000002020832846E9E72DE9F04104460D462B
:1090600016461F462CB940F24D129B4955A00CF0F4
:1090700092FA20460DF005FC092805D04FF4A7729E
:10908000954954A00CF087FAA07E30B96FF0FE002D
:109090000CF0D9FA0020BDE8F081206B38B13B46D6
:1090A000324629462046D4F830C0E047F3E76FF057
:1090B0002C000CF0C8FA0020EDE72DE9F041044641
:1090C0000D4616461F462CB94FF4BC7283493DA08D
:1090D0000CF061FA20460DF0D4FB092805D040F2CF
:1090E00079127E493BA00CF056FAA07E30B96FF0A1
:1090F000FE000CF0A8FA0020BDE8F081606B38B1EA
:109100003B46324629462046D4F834C0E047F3E7D0
:109110006FF02C000CF097FA0020EDE770B50446D4
:109120000D4616462CB94FF4CE726D4925A00CF0B1
:1091300032FA20460DF0A5FB092805D040F29D1219
:10914000674924A00CF027FAA06B28B132462946C3
:109150002046A36B984770BD6FF02C00FBE770B5FD
:1091600004460D462CB94FF4DC725E4915A00CF094
:1091700012FA20460DF085FB092805D040F2B912FD
:10918000584914A00CF007FAE561002070BD70B5D5
:1091900004460D462CB94FF4E872534909A00CF06F
:1091A000FAF920460DF06DFB092805D040F2D112E6
:1091B0004D4908A00CF0EFF92562002070BD0000B9
:1091C0000BE4040064657620213D2052545F4E5527
:1091D0004C4C000072745F6F626A6563745F676510
:1091E000745F7479706528266465762D3E706172AF
:1091F000656E7429203D3D2052545F4F626A65635D
:10920000745F436C6173735F4465766963650000E6
:1092100072745F6F626A6563745F69735F73797399
:1092200074656D6F626A65637428266465762D3E89
:10923000706172656E74290020E4040072745F6FBF
:10924000626A6563745F69735F73797374656D6F68
:10925000626A65637428266465762D3E7061726566
:109260006E7429203D3D2052545F46414C534500C9
:1092700032E40400546F20696E697469616C697A24
:1092800065206465766963653A2573206661696C5B
:1092900065642E20546865206572726F7220636F5A
:1092A0006465206973202564000000006B65726EA0
:1092B000656C2E64657669636500000041E4040016
:1092C0006465762D3E7265665F636F756E742021EE
:1092D0003D20300050E4040060E404006FE404002A
:1092E0007FE4040091E40400ABE4040070B504469C
:1092F00024B91A22784979A00CF04DF9FFF7F0F95A
:10930000054600202060201D4060006000BF284608
:10931000FFF7EAF970BD2DE9F35F054625B939225B
:1093200074496EA00CF037F900BF0198002848D0AE
:109330000BF00DFE0746FFF7D3F981460DF035FD22
:1093400040B16C496CA00CF003F93C22694975A04E
:109350000CF021F9012F08D1664973A00CF0F8F840
:109360003C2264496FA00CF016F900BFFFF7B8F972
:1093700082460DF07BFD40B95E4975A00CF0E8F81F
:109380003C225C4967A00CF006F900BFFFF7A8F982
:1093900083460BF0D1FD40B156497BA00CF0D8F8C4
:1093A0003C2254495FA00CF0F6F85846FFF79CF9B0
:1093B00000BF5046FFF798F900BF4846FFF794F901
:1093C00000BF00BF00260DF051FD0446FFF788F9ED
:1093D00080462868012847D0281D00F074F820B97D
:1093E0004522444972A00CF0D6F8019810B96FF0EC
:1093F00074063CE000202063022120460EF00BF8AA
:10940000281D04F114014268116042684A604160FD
:10941000086000BF00BFFFF763F907460BF08CFD43
:1094200040B1344958A00CF093F8582231493DA07E
:109430000CF0B1F83846FFF757F900BF0198002843
:1094400009DD01AA002104F158000EF0BBFC04F173
:1094500058000EF045FB4046FFF746F90DF0DCFBE7
:10946000266BFFF73DF980460020286000BF40468C
:10947000FFF73AF93046BDE8FC9F70B5044624B9C1
:109480008122574915A00CF086F82068012800D1E8
:1094900070BDFFF725F9064601202060201D00F071
:1094A00012F858B96068A0F1140528460DF0AAFD1D
:1094B0003046FFF719F90DF0AFFB02E03046FFF739
:1094C00013F900BFE4E701460868884201D1012092
:1094D00070470020FCE70000C5E40400636F6D7076
:1094E0006C6574696F6E20213D2052545F4E554C5F
:1094F0004C000000D8E4040046756E6374696F6E1A
:109500005B25735D3A207363686564756C657220D2
:109510006973206E6F7420617661696C61626C653D
:109520000A0000003000000046756E6374696F6EBB
:109530005B25735D3A20696E746572727570742074
:1095400069732064697361626C65640A00000000DD
:1095500046756E6374696F6E5B25735D2073686119
:109560006C6C206E6F742062652075736564206278
:1095700065666F7265207363686564756C657220DB
:1095800073746172740A000046756E6374696F6E5D
:109590005B25735D207368616C6C206E6F74206254
:1095A00065207573656420696E204953520A000076
:1095B00072745F6C6973745F6973656D7074792818
:1095C0002628636F6D706C6574696F6E2D3E7375C0
:1095D0007370656E6465645F6C697374292900003B
:1095E000EBE404004268116042684A604160086030
:1095F00070472DE9F04104460D4616461F4624B932
:109600002E22FB49FBA00BF0C6FF002D04DC2F220D
:10961000F749FDA00BF0BFFF2762FE482060A58040
:10962000E68020896FF30E00208160896FF30E00C1
:109630006081208920F4004000F50040208160898D
:1096400020F40040608104F1100000F094FB04F16C
:10965000180000F090FBE8000CF065F9E060E068AD
:1096600018B96FF00500BDE8F0810020FBE72DE997
:10967000FF4F83B004460F46904624B96122E64965
:10968000DCA00BF088FFE3492068884204D0622206
:10969000E149E2A00BF07FFF00BF0698002849D007
:1096A0000BF055FC8146FFF71BF802900DF07DFB97
:1096B00040B1D949E1A00BF04BFF6522D649EAA0A1
:1096C0000BF069FFB9F1010F08D1D349E7A00BF006
:1096D0003FFF6522D049E4A00BF05DFF00BFFEF71D
:1096E000FFFF01900DF0C2FB40B9CB49E9A00BF0A0
:1096F0002FFF6522C849DCA00BF04DFF00BFFEF72D
:10970000EFFF83460BF018FC40B1C349EFA00BF00C
:109710001FFF6522C049D4A00BF03DFF5846FEF75D
:10972000E3FF00BF0198FEF7DFFF00BF0298FEF7DE
:10973000DBFF00BF00BF00260DF098FB0546FEF7DB
:10974000CFFF824628E0069810B96FF074066CE0EF
:1097500000202863022128460DF05DFE05F114016A
:1097600004F11000FFF73EFF0698002809DD06AA65
:10977000002105F158000EF025FB05F158000EF010
:10978000AFF95046FEF7B0FF0DF046FA2E6BFEF72C
:10979000A7FF824606B148E06089C00B0028D2D1FD
:1097A0006189C1F30E01E06840F831706189C1F34D
:1097B0000E01E06800EBC100C0F804806089401C25
:1097C000618960F30E0161816089C0F30E00A18898
:1097D000884203D160896FF30E006081208920F4F4
:1097E000004020816089C0F30E002189C1F30E0181
:1097F000884205D1608920F4004000F50040608176
:1098000004F1180000F0BAFA70B9A069A0F11405CB
:1098100028460DF0F7FB5046FEF766FF0DF0FCF909
:10982000304607B0BDE8F08F00BF5046FEF75CFF42
:109830002EB9206A18B102212046226A904730468C
:10984000EFE770B504462CB940F2D912A94969A0D6
:109850000BF0A1FE6F492068884205D04FF4ED72ED
:10986000A4496EA00BF097FE2089C00B08B1002020
:1098700070BDFEF735FF06466089C0F30E002189F2
:10988000C1F30E01884208DD6089C0F30E00218912
:10989000C1F30E01401A05B209E0A0886189C1F345
:1098A0000E0108442189C1F30E01401A05B2304669
:1098B000FEF71AFFA8B2DBE72DE9FF4F83B004469D
:1098C0000F46904624B9D6228B494AA00BF063FE7E
:1098D00050492068884204D0D72287494FA00BF016
:1098E0005AFE27B9D822844984A00BF054FEB8F15F
:1098F000000F04D1D922804985A00BF04CFE00BF97
:109900000698002849D00BF022FB8146FEF7E8FEBE
:1099100002900DF04AFA40B1774948A00BF018FECA
:10992000DC22754950A00BF036FEB9F1010F08D1C9
:1099300071494EA00BF00CFEDC226F494AA00BF0DF
:109940002AFE00BFFEF7CCFE01900DF08FFA40B961
:10995000694950A00BF0FCFDDC22674942A00BF0E6
:109960001AFE00BFFEF7BCFE83460BF0E5FA40B1DD
:10997000614956A00BF0ECFDDC225F493AA00BF0E8
:109980000AFE5846FEF7B0FE00BF0198FEF7ACFE97
:1099900000BF0298FEF7A8FE00BF00BF00260DF032
:1099A00065FA0546FEF79CFE8246C1E0069810B9AE
:1099B0006FF0740618E100202863022128460DF09C
:1099C0002AFD05F1140104F11800FFF70BFE0698BB
:1099D000002809DD06AA002105F158000EF0F2F971
:1099E00005F158000EF07CF85046FEF77DFE97E03A
:1099F000FEE40400717565756520213D2052545FB9
:109A00004E554C4C0000000073697A65203E2030B2
:109A1000000000000E0EADBE11E504007175657505
:109A2000652D3E6D61676963203D3D204441544191
:109A300051554555455F4D414749430046756E6355
:109A400074696F6E5B25735D3A2073636865647536
:109A50006C6572206973206E6F7420617661696C29
:109A600061626C650A0000003000000046756E639C
:109A700074696F6E5B25735D3A20696E74657272EE
:109A80007570742069732064697361626C65640A1F
:109A90000000000046756E6374696F6E5B25735D30
:109AA000207368616C6C206E6F7420626520757322
:109AB0006564206265666F726520736368656475AE
:109AC0006C65722073746172740A000046756E636F
:109AD00074696F6E5B25735D207368616C6C206EBA
:109AE0006F74206265207573656420696E20495328
:109AF000520A000072E5040024E504006461746108
:109B00005F70747220213D2052545F4E554C4C00C2
:109B100073697A6520213D2052545F4E554C4C00AC
:109B20000DF07AF82E6BFEF7DBFD824606B15BE0A6
:109B30002089C00B00287FF439AF2189C1F30E01C1
:109B4000E06850F8310038602189C1F30E01E06807
:109B500000EBC1004068C8F800002089401C218942
:109B600060F30E0121812089C0F30E00A188884294
:109B700003D120896FF30E002081608920F400401A
:109B800060816089C0F30E002189C1F30E01884213
:109B900005D1208920F4004000F5004020812046B6
:109BA000FFF74FFEE18888421DDC04F1100000F051
:109BB000E5F858B92069A0F1140528460DF022FAFD
:109BC0005046FEF791FD0DF027F802E05046FEF7F3
:109BD0008BFD206A18B103212046226A9047304647
:109BE00007B0BDE8F08F00BF5046FEF77DFD2EB9EF
:109BF000206A18B101212046226A90473046EFE7DB
:109C00002DE9F04104460D46164634B94FF4A772CB
:109C10005E49AFF220200BF0BEFC5D49206888420F
:109C200006D040F24F125949AFF210200BF0B3FCAE
:109C30002089C00B18B16FF04300BDE8F081FEF73A
:109C40004FFD07462189C1F30E01E06850F831004D
:109C500028602189C1F30E01E06800EBC100406873
:109C600030603846FEF740FD0020E6E770B5044658
:109C700034B94FF4B7724749AFF288200BF08BFC30
:109C800043492068884206D040F26F124149AFF242
:109C900074200BF080FCFEF723FD064620896FF34D
:109CA0000E00208160896FF30E006081208920F40E
:109CB000004000F500402081608920F40040608170
:109CC0003046FEF711FD0DF044F80EE0FEF708FDFA
:109CD0000646A069A0F114056FF0FE00286328462F
:109CE0000DF090F93046FEF7FFFC04F1180000F08B
:109CF00045F80028EAD00EE0FEF7F2FC064620699F
:109D0000A0F114056FF0FE00286328460DF07AF9E3
:109D10003046FEF7E9FC04F1100000F02FF80028AF
:109D2000EAD00DF024F80CF077FF70BD70B5044652
:109D300034B940F2BD121849AFF248300BF02BFC99
:109D400013492068884206D04FF4DF721249AFF2FF
:109D500034300BF020FC2046FFF788FFFEF7C0FCF4
:109D60000546002020602846FEF7BEFCE0680BF0A8
:109D70001EFF002070BD406000607047014608680B
:109D8000884201D1012070470020FCE736E504003D
:109D90000E0EADBE49E504005DE5040001464868CD
:109DA00040088A68B0EB520F0BD1087900F001002F
:109DB0000A7A02F00102904201D10020704701208E
:109DC000FCE70220FAE770B504460E46154624B9B2
:109DD0002922FD49FDA00BF0DEFB002D04DC2A2228
:109DE000F949FEA00BF0D7FB207900F0010000211B
:109DF00061F300006060207A00F0010061F3000070
:109E0000A060266025F00700E06070BD10B5044634
:109E10002046FFF7C3FF20B1012804D0022804D157
:109E200004E0002010BDE068FCE700BFA068420825
:109E3000606841088A4201D9501AF3E78B1AE0683A
:109E4000C01AEFE72DE9F04104460F46154624B944
:109E50004522E549DDA00BF09EFB2046FFF7D6FF2B
:109E6000E1680E1A16B90020BDE8F081AE4200D2BA
:109E70003546D4E90210A0EB5100A8420FD9A268E0
:109E8000216801EB52002A4639460BF02FFCA068EE
:109E900005EB500161F35F00A0602846E4E7D4E9D8
:109EA0000231A1EB5302216801EB530039460BF05C
:109EB0001DFCD4E902C3A3EB5C03EA1AE368A3EB3D
:109EC0005C03D91920680BF011FC207AC143A0680B
:109ED00061F30000A060D4E90210A0EB5100291A40
:109EE000A06861F35F00A0602846BDE72DE9F0415E
:109EF00004460E46154624B97A22BC49B3A00BF09D
:109F00004AFB2046FFF782FFE1680F1AE068A8428B
:109F100003D2E068281A0644E568D4E90210A0EBF1
:109F20005100A84218D9A268216801EB52002A46C4
:109F300031460BF0DBFBA06805EB500161F35F00DD
:109F4000A060BD4205D9A0684108606861F35F0068
:109F500060602846BDE8F081D4E90231A1EB5302EC
:109F6000216801EB530031460BF0C0FBD4E902C37A
:109F7000A3EB5C03EA1AE368A3EB5C03991920687E
:109F80000BF0B4FB207AC143A06861F30000A0602D
:109F9000D4E90210A0EB5100291AA06861F35F0018
:109FA000A060BD4211D9A06840086168B0EB510FB4
:109FB00005DC2079C143606861F300006060A0683F
:109FC0004108606861F35F0060602846C2E72DE9E0
:109FD000F04104460F46154624B9B72284497BA0B8
:109FE0000BF0D9FA2046FFF711FF064616B90020FC
:109FF000BDE8F081AE4200D235466168E068A0EB72
:10A000005100A8420FD9D4E9000200EB52012A46C0
:10A0100038460BF06BFB606805EB500161F35F00A5
:10A0200060602846E4E76368E068A0EB53022068BC
:10A0300000EB530138460BF059FBD4F804C0E36839
:10A04000A3EB5C03EA1AE368A3EB5C03D81921686D
:10A050000BF04CFB2079C143606861F30000606045
:10A060006168E068A0EB5100291A606861F35F0045
:10A0700060602846BCE770B504460E4624B9EB2262
:10A080005C4952A00BF087FA002030602046FFF7B1
:10A09000BDFE05460DB9002070BDD4E9000100EBFE
:10A0A000510030606168E068A0EB5100A84207D918
:10A0B000606805EB500161F35F0060602846EBE7E4
:10A0C0006168E068A0EB51052079C143606861F3E5
:10A0D00000006060207900F0010060602846DBE746
:10A0E00070B504460D462CB94FF48972424937A029
:10A0F0000BF051FA2046FFF789FEE168081A00D1FB
:10A1000070BDA168206800EB51000570E068401E3A
:10A11000A168B0EB510F0AD1207AC143A06861F366
:10A120000000A060207A00F00100A06006E001219C
:10A13000A06801EB500161F35F00A0600120DFE740
:10A1400070B504460E462CB940F235122B491FA0BB
:10A150000BF021FA2046FFF721FE0546A168206892
:10A1600000EB51000670E068401EA168B0EB510F93
:10A1700018D1207AC143A06861F30000A060207A62
:10A1800000F00100A060012D1BD12079C14360685F
:10A1900061F300006060A0684108606861F35F00DF
:10A1A00060600EE00121A06801EB500161F35F00E7
:10A1B000A060012D05D1A0684108606861F35F00CF
:10A1C0006060012070BD000084E5040072622021FF
:10A1D0003D2052545F4E554C4C00000073697A6527
:10A1E000203E20300000000097E50400A9E50400AF
:10A1F000C1E50400D3E50400E6E50400FCE5040045
:10A2000070B504460D4634B94FF4AE723D49AFF215
:10A2100044000BF0C0F92046FFF7F8FD08B9002014
:10A2200070BDD4E9000100EB510000782870E068AF
:10A23000401E6168B0EB510F0AD12079C1436068BC
:10A2400061F300006060207900F00100606006E0CA
:10A250000121606801EB500161F35F006060012043
:10A26000DEE710B5044634B940F297122649AFF242
:10A27000A4000BF090F9606820F001006060207984
:10A2800000F001006060A06820F00100A060207A6A
:10A2900000F00100A06010BD70B5044634B94FF461
:10A2A000D7721A49AFF2CC000BF075F924F007040D
:10A2B00010200BF038FB064606B90FE020460BF0E5
:10A2C00032FB054625B930460BF071FC002605E04F
:10A2D000224629463046FFF776FD00BF304670BD66
:10A2E00010B5044634B940F2CB120949AFF224103C
:10A2F0000BF051F920680BF05AFC20460BF057FC8C
:10A3000010BD000018E604002EE6040042E604003A
:10A3100057E604002DE9F0470546894616461F46D4
:10A32000A846B8F1000F04D11622FA49FAA00BF0A2
:10A3300032F934460CB1082F02D00020BDE8F08776
:10A340002168D8F840008268284690472071384636
:10A35000F4E72DE9F0470546894616461F46A8460C
:10A36000B8F1000F04D12622EF49EBA00BF013F94E
:10A3700034460CB1082F02D00020BDE8F0872279C6
:10A380002168D8F840004368284698473846F4E7E3
:10A390002DE9F0410546884616462F4627B9372253
:10A3A000E249DDA00BF0F7F834461CB96FF0FE006F
:10A3B000BDE8F08122792168386C03682846984707
:10A3C0000020F5E770B504460E4615461920D84919
:10A3D00008750020C861086248628862C862D54872
:10A3E0000863D5484863D548886308460664C56352
:10A3F00003222146FEF707FD002070BDF8B5044694
:10A400000D4616461F46CA48006C20B96B22CC493F
:10A41000CCA00BF0C0F8C648006CC06850B1C4486E
:10A420000097006C33462A462146D0F80CC0C0483D
:10A43000E047F8BD6FF02C00FBE710B50446BC48C0
:10A44000006C20B97522C549BEA00BF0A4F8B8482D
:10A45000006C006930B1B648006C21460269B4480E
:10A46000904710BD6FF02C00FBE770B504460D4619
:10A47000AF48006C20B97F22B949B2A00BF08BF82D
:10A48000AB48006C406938B1A948006C2A462146A7
:10A490004369A748984770BD6FF02C00FBE770B583
:10A4A00004460D46A248006C20B98A22AD49A5A0F9
:10A4B0000BF071F89E48006C2A46214603689C48C0
:10A4C000984770BD70B504460D469948006C20B998
:10A4D0009022A5499BA00BF05EF89548006C2A4697
:10A4E000214643689248984770BD10B5044690488D
:10A4F000006C20B996229D4992A00BF04CF88C4834
:10A50000006C214682688A48904710BD10B5044609
:10A510008748006C20B99D2295498AA00BF03BF832
:10A520008348006C806910B96FF02C0010BD804822
:10A53000006C816920468847F8E710B5044620463C
:10A54000FFF7E4FF10BD10B58AA00BF001F88EA054
:10A550000AF0FEFF99480AF0FBFF99A00AF0F8FF05
:10A56000A3A00AF0F5FFAEA00AF0F2FFB6480AF089
:10A57000EFFFB6A00AF0ECFFC0A00AF0E9FFC7A009
:10A580000AF0E6FFC8A0FFF7C1FF10BD70B5064690
:10A590000C46032E02DAFFF7D6FF70BDA068FFF766
:10A5A000CCFF0546002D06DAC0A0A1680AF0D0FF56
:10A5B000FFF7C9FFF1E72A46C3A0A1680AF0C8FF68
:10A5C00000BFEAE72DE9F04107460C46042F03DA05
:10A5D000FFF7B9FFBDE8F081A06806F0CFFD60B9D4
:10A5E000A068FFF7AAFF0646002E0ADAAFA0A1680E
:10A5F0000AF0AEFFFFF7A7FFECE7A06823F062FACE
:10A600000646B4A0E1680BF064F908B900251EE025
:10A61000B2A0E1680BF05DF908B9012517E0B1A01F
:10A62000E1680BF056F908B9022510E0B1A0E16825
:10A630000BF04FF908B9032509E0B2A0E1680BF06F
:10A6400048F908B9042502E0FFF77DFFC2E7E9B247
:10A650003046FFF724FF00BFBCE72DE9F041064676
:10A660000C46032E03DAFFF76EFFBDE8F081A06809
:10A6700006F084FD60B9A068FFF75FFF0546002D76
:10A680000ADA8AA0A1680AF063FFFFF75CFFECE733
:10A69000A06823F017FA05462846FFF726FFC7B241
:10A6A000012F04D129469AA00AF052FF03E029465F
:10A6B0009BA00AF04DFF00BFD7E72DE9F041074608
:10A6C0000C46042F03DAFFF73EFFBDE8F081A068D7
:10A6D00006F054FD60B9A068FFF72FFF0546002D76
:10A6E0000ADA72A0A1680AF033FFFFF72CFFECE74B
:10A6F000A06823F0E7F905468DA0E1680BF0E9F8C2
:10A7000020B18DA0E1680BF0E4F808B9012624E13E
:10A7100014E100006DE6040070696E20213D2052B6
:10A72000545F4E554C4C000077E6040082E604006E
:10A73000BC31002015A3020053A3020091A3020024
:10A740008FE604005F68775F70696E2E6F7073200C
:10A75000213D2052545F4E554C4C0000A1E60400B0
:10A76000B3E60400C5E60400D1E60400DEE604001A
:10A77000EAE6040070696E205B6F7074696F6E5D4D
:10A78000204750494F0A000020202020206E756D80
:10A790003A2020202020206765742070696E206E8A
:10A7A000756D6265722066726F6D20686172647784
:10A7B0006172652070696E0A00000000E005050006
:10A7C0002020202020202020202020202020206544
:10A7D0002E672E204D5348203E70696E206D6F64A9
:10A7E00065204750494F206F75747075740A0000DA
:10A7F0002020202020726561643A202020202072D1
:10A800006561642070696E206C6576656C206F668A
:10A810002068617264776172652070696E0A000059
:10A8200020202020202020202020202020202065E3
:10A830002E672E204D5348203E70696E2072656150
:10A8400064204750494F0A0034060500202020208C
:10A850002020202020202020202020652E672E2050
:10A860004D5348203E70696E2077726974652047A9
:10A8700050494F20686967680A00000020202020A6
:10A880002068656C703A202020202074686973204D
:10A8900068656C70206C6973740A00004750494FFA
:10A8A00020652E672E3A0000200000005061726182
:10A8B0006D6574657220696E76616C6964203A20FA
:10A8C0002573210A000000002573203A2025640A20
:10A8D000000000006F75747075740000696E70750B
:10A8E00074000000696E7075745F70756C6C7570C3
:10A8F00000000000696E7075745F70756C6C646F39
:10A90000776E00006F75747075745F6F640000007F
:10A9100070696E5B25645D203D20686967680A0088
:10A9200070696E5B25645D203D206C6F770A0000C6
:10A9300068696768000000006F6E000024A0E1688D
:10A940000AF0C7FF20B123A0E1680AF0C2FF08B9EE
:10A95000002602E0FFF7F7FDB7E631462846FFF78D
:10A96000B1FD00BFB1E670B505460C46032D02DA15
:10A97000FFF7E9FD70BD18A061680AF0AAFF20B9D1
:10A9800021462846FFF702FE20E014A061680AF085
:10A99000A0FF20B921462846FFF714FE16E011A0BB
:10A9A00061680AF096FF20B921462846FFF755FE58
:10A9B0000CE00EA061680AF08CFF20B92146284601
:10A9C000FFF77BFE02E0FFF7BEFDD3E700BFD1E754
:10A9D0006C6F77006F6666006E756D006D6F6465F5
:10A9E0000000000072656164000000007772697405
:10A9F00065000000014600207047024600207047B5
:10AA000001460020704710B50446184610BD10B529
:10AA10000446184610BD03460020704770B5064630
:10AA20000D462C4624B94C22F649F7A00AF0B3FD96
:10AA300003202075F8486062F848A062F848206357
:10AA4000F8486063F848E062F848A0630020E061DD
:10AA500020620B2231462046FEF7D5F970BD10B5B5
:10AA60000446A06D006820B96422F149F1A00AF003
:10AA700092FDA06D01682046884710BD2DE9FC4776
:10AA800004460D4616461F46DDE90A89A06D40685A
:10AA900020B96E22ED49EEA00AF07DFDCDE90089D6
:10AAA000A06D3B4632462946D0F804C02046E04718
:10AAB000BDE8FC872DE9FC4704460D4616461F46B7
:10AAC000DDE90A89A06D806820B97822E649E7A00F
:10AAD0000AF061FDCDE90089A06D3B46324629466A
:10AAE000D0F808C02046E047BDE8FC8770B50446B2
:10AAF0000D461646A06DC06820B97F22E149E2A04C
:10AB00000AF049FDA06D32462946C36820469847A1
:10AB100070BD70B504460D46A06D006920B9852250
:10AB2000DF49E0A00AF037FDA06D29460269204602
:10AB3000904770BD70B504460D46A06D406928B1C0
:10AB4000A06D294642692046904770BD6FF02C00E9
:10AB5000FBE770B504460D46A06D806928B1A06D75
:10AB6000294682692046904770BD6FF02C00FBE7B4
:10AB70002DE9F04180460E464746002530E0294643
:10AB8000CFA00AF0E5FC00240CE02819B04205DA59
:10AB90002819395CCCA00AF0DBFC02E0CCA00AF05A
:10ABA000D7FC641C102CF0DBC8A00AF0D1FC0024F8
:10ABB00010E02819B0420CDA2819385C20385F28D8
:10ABC00002D22819385C00E02E200146C1A00AF00C
:10ABD000BFFC641C102CECDBBFA00AF0B9FC1035E4
:10ABE000B542CCDBBDE8F08170B505462846FEF7DE
:10ABF00003F904462CB9B9A00AF0AAFC6FF0FE00D4
:10AC000070BD2046FFF72BFFFAE72DE9FC4782468F
:10AC1000884616465046FEF7EFF8044634B9AFA012
:10AC20000AF096FC6FF0FE00BDE8FC87B4F8401017
:10AC3000B4F8422088180AF076FE05462DB9ADA07A
:10AC40000AF086FC6FF00500EEE734F8400F471974
:10AC5000208861884218FF2128460AF017FDA06865
:10AC600008FB00666088CDE9007034F840392A4658
:10AC700031462046FFF702FF81464946A1A00AF06F
:10AC800067FCB4F840102846FFF772FFB4F8421092
:10AC90003846FFF76DFF28460AF089FF0020C3E71A
:10ACA0002DE9FC4180460F4616464046FEF7A4F8C3
:10ACB000044634B989A00AF04BFC6FF0FE00BDE8F1
:10ACC000FC81B4F842000AF02EFE05462DB989A099
:10ACD0000AF03EFC6FF00500F1E7A06C07FB006690
:10ACE000B4F84200CDE90050B4F8403000223146BB
:10ACF0002046FFF7C3FEB4F842102846FFF738FF9E
:10AD000028460AF054FF0020D9E72DE9FC5F83466E
:10AD10008A4690465846FEF76FF8044634B96FA04D
:10AD20000AF016FC6FF0FE00BDE8FC9FB4F840107E
:10AD3000B4F8422088180AF0F6FD06462EB96DA038
:10AD40000AF006FC6FF00500EEE7B4F8400000EBF7
:10AD50000609002501E075556D1CB4F84000A842B5
:10AD6000F9D8002502E009F805506D1CB4F842003E
:10AD7000A842F8D8A06C0AFB0088B4F84200CDE9DC
:10AD80000090B4F84030324641462046FFF792FE2C
:10AD900007461FB1394660A00AF0DAFB30460AF0D8
:10ADA00006FF0020C0E770B505460E462846FEF7B0
:10ADB00023F804462CB949A00AF0CAFB6FF0FE0044
:10ADC00070BD31462046FFF7A4FEF9E770B5064690
:10ADD00000243046FEF710F805462DB93FA00AF0D2
:10ADE000B7FB6FF0FE0070BD002404E0214628464A
:10ADF000FFF78FFE641CB5F84C00A042F6D8002087
:10AE0000F1E70000F5E6040064657620213D20525C
:10AE1000545F4E554C4C0000F5A90200FBA90200FE
:10AE200007AA02000FAA020001AA020017AA020044
:10AE300011E704006465766963652D3E6F70732DBC
:10AE40003E726561645F69640000000025E70400EC
:10AE50006465766963652D3E6F70732D3E72656122
:10AE6000645F70616765000036E7040064657669B9
:10AE700063652D3E6F70732D3E77726974655F70E8
:10AE80006167650048E704006465766963652D3E87
:10AE90006F70732D3E6D6F76655F70616765000042
:10AEA0005EE704006465766963652D3E6F70732DFF
:10AEB0003E65726173655F626C6F636B00000000DA
:10AEC000253036783A200000253032782000000006
:10AED00020202000256300000A0000006E6F206E15
:10AEE000616E642064657669636520666F756E6463
:10AEF000210A00006F7574206F66206D656D6F729A
:10AF000079210A007265616420706167652C207286
:10AF1000633D25640A0000007772697465207061E2
:10AF20006765206661696C6564212C2072633D252C
:10AF3000640A00002DE9F04105460C46032D1BDA9A
:10AF400000BFAFF26C000AF003FB47A00AF000FB61
:10AF50004DA00AF0FDFA5C480AF0FAFA5B480AF0E4
:10AF6000F7FA5B480AF0F4FA5A480AF0F1FA5A483C
:10AF70000AF0EEFABDE8F08158A160680AF0A9FC79
:10AF800018B9A068FFF730FE6BE055A160680AF0C1
:10AF9000A0FC98B9052D03DA53A00AF0D9FAD0E73E
:10AFA000206922F08FFD0646E06822F08BFD0746FF
:10AFB00032463946A068FFF728FE52E053A1606888
:10AFC0000AF087FC98B9052D03DA47A00AF0C0FA09
:10AFD000B7E7206922F076FD0646E06822F072FDB0
:10AFE000074632463946A068FFF75AFE39E049A1C4
:10AFF00060680AF06EFC98B9052D03DA3AA00AF0F1
:10B00000A7FA9EE7206922F05DFD0646E06822F07F
:10B0100059FD074632463946A068FFF776FE20E024
:10B020003EA160680AF055FC70B9042D03DA2EA029
:10B030000AF08EFA85E7E06822F044FD06463146C4
:10B04000A068FFF7B0FE0CE036A160680AF041FC92
:10B0500018B9A068FFF7BAFE03E035A00AF078FA45
:10B060006FE700BF86E700006D74645F6E616E6419
:10B07000205B4F5054494F4E5D205B504152414D33
:10B08000202E2E2E5D0A00002020202020202020AF
:10B09000206964202020202020203C6E616D653EC8
:10B0A00020202020202020202020202047657420E0
:10B0B0006E616E64696420627920676976656E20CE
:10B0C0006E616D650A000000D40605007806050073
:10B0D0003007050090070500DC07050069640000E3
:10B0E000726561640000000054686520696E7075C7
:10B0F0007420706172616D65746572732061726530
:10B1000020746F6F20666577210A000072656164A4
:10B110006F6F620077726974650000006572617319
:10B12000650000006572617365616C6C0000000071
:10B13000496E70757420706172616D6574657273AB
:10B1400020617265206E6F7420737570706F7274F9
:10B150006564210A000000002DE9F04706460F460D
:10B1600015462EB940F22512FD49FEA00AF013FA49
:10B17000A846F46C2CB940F22912F949FEA00AF055
:10B180000AFA28E0FDF7ACFA8246E088A1888842F6
:10B1900005D1A06818B95046FDF7A6FA1DE0E18870
:10B1A000206810F80190E088401CE080E188B06CD5
:10B1B000C0F38F20814201DB0020E080A0680128DD
:10B1C00001D10020A0605046FDF78EFA87F800906C
:10B1D0007F1C6D1E00BF002DD4D100BFA8EB050061
:10B1E000BDE8F08710B5E948006840B9E84B012296
:10B1F000E8A1042022F0B0F80120E449086010BD65
:10B2000070B50546EC6C2CB94FF4C472E349DAA072
:10B210000AF0C1F9A088E188884207D1A06808B97E
:10B22000002070BDA86CC0F38F20FAE7A088E188E9
:10B23000884203DDA088E188401AF2E7E088A1880F
:10B24000411AA86CC0F38F20401AEAE710B50446F3
:10B250002046FFF7D5FF10BD70B506460D46F46CCD
:10B260002CB940F2B312CE49C3A00AF094F930468B
:10B27000FFF7ECFFA84205D24FF4DA72C849C9A023
:10B280000AF089F9A06810B10DB10020A060E08833
:10B290002844E080E188B06CC0F38F20814208DB55
:10B2A000E188B06CC0F38F2091FBF0F200FB12102C
:10B2B000E08070BD70B505460E46EC6C2CB940F2CE
:10B2C000C912C249ACA00AF066F9E088A188884298
:10B2D00018DCA0883044A080A188A86CC0F38F201F
:10B2E000814227DBA188A86CC0F38F2091FBF0F28C
:10B2F00000FB1210A080A088E18888421ADB0120A0
:10B30000A06017E0A0883044A080A088E18888422F
:10B3100010DBA188A86CC0F38F20814208DBA188D4
:10B32000A86CC0F38F2091FBF0F200FB1210A080FC
:10B330000120A060A068012803D1FFF753FFA08877
:10B34000E08070BD2DE9F04704460F46904604B1F9
:10B350002FB94FF4FB729E499EA00AF01CF9FDF72D
:10B36000BFF98246A06CC0F38F2000282DD10026A3
:10B37000E56C2DB94FF400729549A1A00AF00BF9C4
:10B380002868012813D001202860206C006928B9A2
:10B3900040F205228E499FA00AF0FDF8206C01239F
:10B3A00042463946D0F810C02046E04701E06FF031
:10B3B00016065046FDF798F916B94046BDE8F087E5
:10B3C00030460AF040F90020F8E7E56C00262046F8
:10B3D000FFF73CFF81462DB940F215227C4966A05B
:10B3E0000AF0D9F8C84501DA464600E04E46E8883A
:10B3F0008119A06CC0F38F20814207D2EA882868A7
:10B400008118324638460AF071F91CE0A06CC0F38E
:10B410008F20EB88C21A2868C11838460AF066F9EE
:10B42000EB8803EB060CA36CC3F38F23ACEB030296
:10B43000A36CC3F38F233B44B5F806C0A3EB0C0009
:10B4400029680AF053F931462046FFF705FF5046B8
:10B45000FDF74AF93046B1E770B5054600262DB92B
:10B4600040F25722754976A00AF095F82C46002044
:10B47000E06420650822002104F154000AF006F976
:10B48000206C006830B1206C04F144010268204651
:10B4900090470646304670BD2DE9F04104460E4601
:10B4A0004FF000082CB94FF41B72694964A00AF0F0
:10B4B00072F8254606F4007038B1E08A00F4007096
:10B4C00018B96FF00B00BDE8F08106F4006030B1F0
:10B4D000E08A00F4006010B96FF00B00F3E706F4A7
:10B4E000807030B1E08A00F4807010B96FF00B000A
:10B4F000E9E706F4806030B1E08A00F4806010B9BA
:10B500006FF00B00DFE706F0400018B9207E00F076
:10B51000400008B14FF04008F0B22083E86C0028EA
:10B520001DD106F48070C8B1A96CC1F38F2101F15F
:10B530000C000AF0F8F907462FB940F28B22444973
:10B540000DA00AF028F807F10C003860A96CC1F3CF
:10B550008F22002138680AF099F87BE08BE0D1E077
:10B5600096E7040073657269616C20213D20525496
:10B570005F4E554C4C00000072785F6669666F2024
:10B58000213D2052545F4E554C4C0000142B00209E
:10B59000240805005541525400000000B4E704009F
:10B5A000D1E704006C656E203C3D2072745F646DD1
:10B5B000615F63616C635F7265637665645F6C6530
:10B5C0006E2873657269616C29000000EEE7040063
:10B5D0000BE804002873657269616C20213D2052DC
:10B5E000545F4E554C4C29202626202864617461F6
:10B5F00020213D2052545F4E554C4C290000000044
:10B6000072785F646D6120213D2052545F4E554C2D
:10B610004C00000073657269616C2D3E6F70732D74
:10B620003E646D615F7472616E736D697420213D5B
:10B630002052545F4E554C4C000000001AE80400A4
:10B6400064657620213D2052545F4E554C4C0000DD
:10B6500029E804000020B880F880B860EF64208BEF
:10B6600040F480702083286C4FF480720621436878
:10B670002846984755E006F4007000283FD0A86C93
:10B68000C0F38F2078B904200AF04DF9074637B986
:10B6900040F29E22F849AFF2980009F07CFF0020AA
:10B6A0003860EF6426E0A96CC1F38F2101F10C0032
:10B6B0000AF039F9074637B940F2A722EE49AFF24E
:10B6C000481009F068FF07F10C003860A96CC1F35D
:10B6D0008F220021386809F0D9FF0020B880F88057
:10B6E000B860EF64286C4FF4007203214368284669
:10B6F000984700BF208B40F40070208311E00020A9
:10B70000E8640EE006F4807020B1208B40F4807075
:10B71000208306E006F4007018B1208B40F400701E
:10B720002083286D002843D106F48060D0B10C201E
:10B730000AF0F9F807462FB940F2CA22CE49CFA045
:10B7400009F029FF3846FDF7D1FD2F65208B40F425
:10B7500080602083286C4FF480620621436828466D
:10B76000984734E006F40060F8B128200AF0DBF8CE
:10B7700007462FB940F2D922BF49C5A009F00BFFF7
:10B7800000203860002304220821381DFDF731FF16
:10B790002F65208B40F400602083286C4FF40062FA
:10B7A000032143682846984711E0002028650EE0F1
:10B7B00006F4806020B1208B40F48060208306E096
:10B7C00006F4006018B1208B40F400602083208BC9
:10B7D00040EA08002083002075E670B5044634B9BD
:10B7E00040F2FD22AF49AFF2A81009F0D4FE254681
:10B7F000A07E012801DD002070BD208B00F4807048
:10B80000C8B1286C4FF480720721436828469847D6
:10B81000208B20F480702083EE6C36B94FF4437295
:10B82000A049AFF2AC2009F0B6FE30460AF0BFF9ED
:10B830000020E8642FE0208B00F4007000282AD05C
:10B84000286C4FF400720721436828469847208BE4
:10B8500020F400702083A86CC0F38F2060B9EE6CD8
:10B8600036B940F21E328F49AFF26C2009F093FED8
:10B8700030460AF09CF90CE0EE6C36B940F2273203
:10B880008849AFF20C3009F086FE30460AF08FF995
:10B8900000BF0020E864208B00F48060C0B1286CF9
:10B8A0004FF480620721436828469847208B20F494
:10B8B000806020832E6D2EB94FF44E7279496FA0AF
:10B8C00009F069FE30460AF072F9002028651FE091
:10B8D000208B00F40060D8B1286C4FF4006207217F
:10B8E000436828469847208B20F4006020832E6D03
:10B8F0002EB940F249326B4965A009F04CFE301D6B
:10B90000FEF714FA30460AF052F90020286500BF0D
:10B91000286C00220421436828469847E08A20F0DA
:10B920001000E082002067E72DE9F04104468846D8
:10B9300017461D4634B94FF458725B49AFF20030D8
:10B9400009F029FE15B90020BDE8F0812646208BBC
:10B9500000F4807028B12A4639463046FFF7FCFBD8
:10B96000F2E7208B00F4007028B12A4639463046B1
:10B97000FFF7E8FCE8E72A463946304600F09BF935
:10B98000E2E72DE9F0410446884617461D4634B9E2
:10B9900040F27A324549AFF2583009F0FCFD15B952
:10B9A0000020BDE8F0812646208B00F4806028B19D
:10B9B0002A463946304600F0CAF9F2E7208B00F4F7
:10B9C000006028B12A463946304600F001FAE8E71F
:10B9D0002A463946304600F094F9E2E72DE9F0476F
:10B9E00006460F4615464FF0000936B940F2F532CB
:10B9F0002F49AFF2B43009F0CEFD34460A2F59D2A8
:10BA0000DFE807F0580A050F582D58585835F08AC6
:10BA100040F02000F08255E0F08A20F02000F08213
:10BA200050E0DDB1A846D8F80400C0F38F21A06C27
:10BA3000C0F38F20814205D0A07E18B16FF01600B0
:10BA4000BDE8F087D8E90001C4E91101A07E20B16A
:10BA5000206C294602682046904700BF32E02DB195
:10BA60000822294604F1540009F040FE2AE015B1ED
:10BA700040F24310288025E029E8040074785F66CE
:10BA800069666F20213D2052545F4E554C4C00009A
:10BA900074785F646D6120213D2052545F4E554C97
:10BAA0004C00000038E8040048E8040057E80400AF
:10BAB00067E80400206C2A463946436820469847C8
:10BAC000814600BF00BF4846BAE72DE9F04704466B
:10BAD000884616461F4634B940F20752D349AFF2A2
:10BAE0007C5009F058FD254600202875E861286241
:10BAF000CF486862CF48A862CF48E862CF48286341
:10BB0000CF486863CF48A863EF63B2B24146284686
:10BB1000FDF779F981464846BDE8F0872DE9FE43F7
:10BB200004460E46F0B2012806D0022867D003284A
:10BB30007ED0042862D167E04FF0FF37E56C35B95D
:10BB400040F23352C049AFF2D05009F024FD2EE04C
:10BB5000206CC168204688470746781C00B927E05A
:10BB6000FCF7BEFD8146AA8829688F54A888401C2E
:10BB7000A880A988A06CC0F38F20814201DB00203F
:10BB8000A880A888E98888420ED1E888401CE8800F
:10BB90000120A860E988A06CC0F38F20814201DBFE
:10BBA0000020E880FFF71EFB4846FCF79DFDCFE72D
:10BBB00000BFE069E8B1FCF793FD8146A888E988F9
:10BBC000884203DBA888E988401A06E0E888A9884B
:10BBD000411AA06CC0F38F20401A80464846FCF7FB
:10BBE00083FDB8F1000F03D041462046E26990473B
:10BBF00000BF606D10B1D4E91510884758E0256D7D
:10BC00002846FDF73AFC53E0256D002301AA69465A
:10BC1000281DFDF751FE01AA02A9281DFDF7F0FF1E
:10BC200058B901202860206C02230769204600E0F3
:10BC30000CE0DDE90121B84701E000202860206A1E
:10BC400018B1226A20460099904731E03712A06C63
:10BC5000C0F38F20B8B9E56C35B94FF4B3627A49B7
:10BC6000AFF2646009F097FCE06928B940F29A529B
:10BC7000754976A009F08FFC39462046E269904765
:10BC80000020286013E0FCF72BFD80463946204653
:10BC9000FFF710FB2046FFF7D9FA07464046FCF7AE
:10BCA00023FDE06918B139462046E269904700BF9C
:10BCB00000BFBDE8FE832DE9F04106460F4614465D
:10BCC00026B9EF226B496CA009F065FCA04611E093
:10BCD000306CC168304688470546681C00B90BE0E7
:10BCE0003D707F1C641E307E00F0400010B10A2DB4
:10BCF00000D101E0002CEBD100BFA8EB0400BDE8AF
:10BD0000F0812DE9F04104460E4615462CB94FF45A
:10BD100083725E4958A009F03EFC2F4612E030784D
:10BD20000A2808D1207E00F0400020B1206C0D21AF
:10BD30008268204690473178206C82682046904780
:10BD4000761C6D1E002DEAD1781BBDE8F0812DE92F
:10BD5000F04104460E4615462CB940F255124C49A6
:10BD600045A009F018FCA846276D2FB940F25912DA
:10BD7000474948A009F00FFC24E030780A2810D188
:10BD8000207E00F0400060B1206C0D2182682046CA
:10BD90009047401C28B94FF0FF313846FDF7BBFAF9
:10BDA00010E004E04FF0FF313846FDF7B4FA317887
:10BDB000206C826820469047401C0028F2D0761CF8
:10BDC0006D1E00BF002DD8D1A8EB0500BDE8F081A5
:10BDD0002DE9F047044688461646256D4FF0FF339F
:10BDE00032464146281DFDF742FC0746CFB9FCF715
:10BDF00077FC8146286801280DD00120286048463C
:10BE0000FCF772FC206C022332464146D0F810C089
:10BE10002046E04702E04846FCF766FC3046BDE8B5
:10BE2000F087384609F00FFC0020F8E779E80400B5
:10BE300059B4020099B40200DBB7020029B902002C
:10BE400083B90200DDB902008FE8040073657269EE
:10BE5000616C2D3E706172656E742E72785F696ED2
:10BE600064696361746520213D2052545F4E554CD6
:10BE70004C00000076E7040073657269616C202154
:10BE80003D2052545F4E554C4C00000086E70400A4
:10BE9000A5E70400747820213D2052545F4E554C94
:10BEA0004C0000002DE9F04104460F461546394686
:10BEB000204600F0EDFB064616B13046BDE8F081A5
:10BEC0000122394604F1480007F0D2FC65640020E5
:10BED0006067012084F840000020EFE72DE9F0477B
:10BEE0000446894690461D46DDF820A04046FCF7F2
:10BEF00083FF0746EFB1387D0C281AD127644946E5
:10BF0000204600F023FC064616B13046BDE8F08717
:10BF1000681C18B100212846FEF7C1FA082200214A
:10BF200004F1440009F0B2FBC4F83CA0E564002031
:10BF3000ECE76FF0FE00E9E7F8B505460E46174658
:10BF40001C464FF0FF333A46314628460094FFF72F
:10BF5000C5FFF8BDF8B504460D466FF0FE0624B9DE
:10BF60005F22FC49FCA009F016FB4520005D6978C2
:10BF700088420AD194F844102878814205D1A06CF7
:10BF80006968884201D10020F8BD697845200155D3
:10BF9000287884F844006968A164E06C401C68B1AA
:10BFA00094F8440000F0100020B10021E06CFEF78E
:10BFB00089FA03E00121E06CFEF784FA206C10B3EB
:10BFC000216C01F148004FF0FF3107F010FF0646E9
:10BFD000D6B9206C406FA0420FD1206C406C04F1A8
:10BFE0004401026820469047064636B1DFA301228D
:10BFF000E7A10320009421F0AFF9216C01F1480082
:10C0000007F017FF00E000263046BDE72DE9F043BA
:10C0100087B004460E4617469846DDF8389024B996
:10C020009C22DE49CCA009F0B6FA206C20B99D22F2
:10C03000DA49DBA009F0AFFA216C01F148004FF0BA
:10C04000FF3107F0D4FE0546002D5BD1206C406F18
:10C05000A04213D0206C406C04F1440102682046D9
:10C060009047054615B9206C446707E0BFA301223D
:10C07000C7A10320009421F06FF949E00296002047
:10C0800003900497069820F00100401C0690069843
:10C0900020F00200069000200590206C406C02A960
:10C0A0004268204690470546002D07DAC2A30122C8
:10C0B000B7A10320009421F04FF929E0CDF80880C2
:10C0C00000200390CDF81090069820F00100069013
:10C0D000069820F00200801C069000200590206C3D
:10C0E000406C02A94268204690470546002D07DAB9
:10C0F000B1A30122A6A10320009421F02DF907E0AD
:10C10000002504E06FF00B0007B0BDE8F08300BF2E
:10C11000216C01F1480007F08CFE2846F4E72DE978
:10C12000F04387B004460E4617469846DDF838902F
:10C1300024B9E722A84988A009F02DFA206C20B97B
:10C14000E822A54996A009F026FA216C01F14800E1
:10C150004FF0FF3107F04BFE0546002D5BD1206C00
:10C16000406FA04213D0206C406C04F1440102687F
:10C1700020469047054615B9206C446707E07BA32D
:10C18000012283A10320009421F0E6F849E0029601
:10C19000002003900497069820F00100401C0690B0
:10C1A000069820F00200069000200590206C406C5C
:10C1B00002A94268204690470546002D07DA7EA373
:10C1C000012273A10320009421F0C6F829E0002089
:10C1D0000290CDF80C80CDF81090069820F0010068
:10C1E0000690069820F00200801C06900020059022
:10C1F000206C406C02A94268204690470546002DFD
:10C2000007DA6DA3012262A10320009421F0A4F8B3
:10C2100007E0002504E06FF00B0007B0BDE8F083F5
:10C2200000BF216C01F1480007F003FE2846F4E747
:10C230002DE9F04186B004460E46174698462CB9C3
:10C2400040F23112654944A009F0A5F9206C28B9E3
:10C250004FF49972614952A009F09DF9216C01F1E6
:10C2600048004FF0FF3107F0C2FD0546002D38D1E0
:10C27000206C406FA04213D0206C406C04F144014C
:10C28000026820469047054615B9206C446707E0D0
:10C2900036A301223EA10320009421F05DF826E0A0
:10C2A00001960297CDF80C80059820F00100401C03
:10C2B0000590059820F00200801C05900020049055
:10C2C000206C406C01A94268204690470546002D2D
:10C2D0000CDA39A301222EA10320009421F03CF8AE
:10C2E00005E06FF00B0006B0BDE8F08100BF216CE7
:10C2F00001F1480007F09DFD2846F4E7F7B5054633
:10C3000016460123324601A92846FFF791FF04464D
:10C31000002C01DA2046FEBD0020FCE7F7B50546FB
:10C32000144695F8440000F0040040B1BDF8040044
:10C33000000ABDF80410C9B240EA012601960223A2
:10C34000224601A92846FFF773FF0746002F47DA68
:10C350003846FEBDA0E80400646576696365202167
:10C360003D2052545F4E554C4C0000005350492024
:10C3700064657669636520257320636F6E666967FF
:10C3800075726174696F6E206661696C6564000026
:10C390007370692E636F726500000000B1E80400DD
:10C3A0006465766963652D3E62757320213D205278
:10C3B000545F4E554C4C00005350492064657669DB
:10C3C0006365202573207472616E736665722066E2
:10C3D00061696C6564000000C7E80400DDE80400E2
:10C3E00095F8440000F0040028B12088000A217864
:10C3F00040EA012626800020FEBD2DE9F0410446DA
:10C400000F4634B94FF4CA727849AFF2B40009F05C
:10C41000C2F83D4615B92846BDE8F081216C01F10E
:10C4200048004FF0FF3107F0E2FC06460EB1284607
:10C43000F2E7206C406FA0420CD0206C406C04F1FD
:10C440004401026820469047064616B9206C4467AE
:10C4500000E00FE00AE0206C406C2946426820466C
:10C4600090470646002E00DA02E0ED68002DF2D17A
:10C4700000BF00BF216C01F1480007F0DAFC28463C
:10C48000CAE770B50446002534B94FF4E57258493F
:10C49000AFF23C1009F07FF8206C30B940F2CB12BB
:10C4A0005349AFF2041009F076F8216C01F148000D
:10C4B0004FF0FF3107F09BFC054615B16FF01600F9
:10C4C00070BD206C406FA04212D0206C406C04F113
:10C4D0004401026820469047054615B9206C446720
:10C4E00006E0216C01F1480007F0A3FC2846E7E7CD
:10C4F0002846E5E710B5044634B940F2EB123D4951
:10C50000AFF2AC1009F047F8206C30B94FF4F67276
:10C510003849AFF2741009F03EF8206C406FA04229
:10C5200005D040F2ED12334933A009F034F8216C04
:10C5300001F1480007F07DFC10BD30B585B0044620
:10C5400034B94FF4FC723449AFF2F41009F023F817
:10C55000206C30B940F2F9122F49AFF2BC1009F04B
:10C560001AF814220021684609F090F8049820F087
:10C570000100401C0490206C406C694642682046D3
:10C5800090470546002D02DA284605B030BD002050
:10C59000FBE730B585B0044634B94FF403721F4948
:10C5A000AFF24C2008F0F7FF206C30B940F20D22BA
:10C5B0001A49AFF2142008F0EEFF14220021684659
:10C5C00009F064F8049820F00200801C0490206CAC
:10C5D000406C69464268204690470546002D02DAC5
:10C5E000284605B030BD0020FBE70000EDE8040060
:10C5F00005E9040015E904006465766963652D3E6C
:10C600006275732D3E6F776E6572203D3D206465C7
:10C61000766963650000000028E9040034E904003D
:10C620002DE9F0410446884616461F46254625B9A1
:10C630001622544954A008F0AEFF686F20B91722A3
:10C64000504955A008F0A7FF3B4632460021686FCD
:10C65000FFF7EEFDBDE8F0812DE9F0410446884684
:10C6600016461F46254625B92422514946A008F002
:10C6700092FF686F20B925224D4947A008F08BFF33
:10C680003B4600223146686FFFF7D2FDBDE8F081DE
:10C6900070B504460E4624B9392246493AA008F03E
:10C6A0007AFF25460C20287500206862A862E8629F
:10C6B00041482863414868630020A863032231464B
:10C6C0002846FCF7A0FB70BD2DE9F04104468846E2
:10C6D00016461F46254625B95822394939A008F083
:10C6E0005AFF286C20B9592235493BA008F053FF66
:10C6F0003B46324600212846FFF79AFDBDE8F0810F
:10C700002DE9F0410446884616461F46254625B9C0
:10C71000662237492BA008F03EFF286C20B967221B
:10C7200033492DA008F037FF3B460022314628460A
:10C73000FFF77EFDBDE8F081034611B1012902D16A
:10C7400000E000E000BF00BF0020704770B5044665
:10C750000E4624B98A22274927A008F01CFF254647
:10C760000D20287500206862A862E86226482863C8
:10C77000264868632648A863032231462846FCF70A
:10C7800042FB70BD43E9040062757320213D2052D5
:10C79000545F4E554C4C00006275732D3E6F776EA2
:10C7A000657220213D2052545F4E554C4C000000D4
:10C7B00058E904006EE9040021C6020059C60200CF
:10C7C00085E9040064657669636520213D20525443
:10C7D0005F4E554C4C0000006465766963652D3EE4
:10C7E00062757320213D2052545F4E554C4C000021
:10C7F00099E90400AEE9040064657620213D2052E9
:10C80000545F4E554C4C0000C9C6020001C70200DF
:10C8100039C7020010B508F065FB06F0AAFA08F067
:10C8200076FB10BD704710B527480EF05EFC0EF089
:10C830006CFC00BF00200EF005FD00BF4FF0FF3084
:10C840000F21002804DB4A07130E204A135406E088
:10C850004A07140E1E4A00F00F031B1FD45400BFDA
:10C860001C4909684FF47A72B1FBF2F04FF0E021F5
:10C87000486100BF00BF0020886100BF0720086139
:10C8800000BF10BD10B50020FBF72EFFFFF7CBFF58
:10C890001149124809F045F901F0CFF910A009F04B
:10C8A00006F906F0BFFA104C2046B0F1005F05D142
:10C8B00001460E4808F04CFE00BFFEE70A490CA0F6
:10C8C00008F046FE10BD000025C8020000E400E0AC
:10C8D00018ED00E0582F00200000042030F7002061
:10C8E0007561727430000000E82A00208808050095
:10C8F0000D0A207573696E6720736F6674646576C0
:10C90000696365207468652052414D20617420255B
:10C91000700D0A00014600BF086800F01F020A609F
:10C92000420912B1012A03D000BF4FF0A040704766
:10C93000F748FCE72DE9FF470C4615461E46DDE9A2
:10C940000C896846FFF7E6FF8246002744EA450067
:10C9500040EA860040EA082040EA094007430AF519
:10C96000E060009940F82170BDE8FF87014630295A
:10C9700009D201EB4102E74B03EB82000268521C33
:10C9800012B9002000E0002070472DE9F84F8146E1
:10C990000C461546E0B2FFF7E9FF8046B8F1000FFC
:10C9A00001D1BDE8F88F26462F466FB9009668463C
:10C9B000FFF7B0FF82460121009A01FA02F0CAF89F
:10C9C0000C0500BF00BF0DE000966846FFF7A2FF10
:10C9D00082460121009A01FA02F0CAF8080500BF58
:10C9E00000BF00BF00BF00BFDBE72DE9F843804672
:10C9F0000C460025E0B2FFF7B9FF064616B92846F7
:10CA0000BDE8F88300946846FFF784FF074600BF3F
:10CA1000D7F810050099C84000F0010005462846E7
:10CA2000EEE72DE9FC4107460D461446E8B2FFF754
:10CA30009DFF06460EB9BDE8FC815CB900BF002031
:10CA4000009003460122114601902846FFF772FF2D
:10CA500000BF20E0012C04D10021284600F01FFA7D
:10CA600019E0022C04D10321284600F018FA12E044
:10CA7000032C04D10121284600F011FA0BE0042C0C
:10CA800009D10020062103460122CDE900101146FC
:10CA90002846FFF74FFF00BFCDE72DE9F0410546DF
:10CAA0000F46092600240FE09B4800EB04100068A5
:10CAB000A84208D1984A02EB0412D068964A02EBC9
:10CAC000041291688847641CB442EDDBBDE8F08134
:10CAD0002DE9FE4F884614469A46DDF830904FF017
