:020000040002F8
:1070000020AD012095EB03009DEB030041AA020097
:10701000A1EB0300A3EB0300A5EB030000000000BD
:10702000000000000000000000000000A7EB0300CB
:10703000A9EB03000000000087A90200E9EF0200AD
:1070400059EA0300AFEB030085F3030055BC0300CE
:10705000AFEB0300AFEB0300C7C80300AFEB0300C7
:10706000AFEB0300AFEB0300AFEB0300EBF8030063
:10707000AFEB0300AFEB0300AFEB0300AFEB03009C
:10708000AFEB0300F9F80300AFEB0300AFEB030035
:10709000AFEB0300AFEB030087400400AFEB03004E
:1070A000AFEB0300AFEB0300AFEB0300AFEB03006C
:1070B000AFEB0300AFEB0300000000000000000096
:1070C000AFEB0300AFEB0300AFEB03000F220400B4
:1070D00007F90300AFEB0300AFEB0300AFEB0300D6
:1070E000AFEB0300AFEB0300AFEB030000000000C9
:1070F00000000000AFEB03000000000023220400AA
:10710000000000000000000000000000000000007F
:10711000000000000000000000000000000000006F
:10712000000000000000000000000000000000005F
:10713000000000000000000000000000000000004F
:10714000000000000000000000000000000000003F
:10715000000000000000000000000000000000002F
:10716000000000000000000000000000000000001F
:10717000000000000000000000000000000000000F
:1071800000000000000000000000000000000000FF
:1071900000000000000000000000000000000000EF
:1071A00000000000000000000000000000000000DF
:1071B00000000000000000000000000000000000CF
:1071C00000000000000000000000000000000000BF
:1071D00000000000000000000000000000000000AF
:1071E000000000000000000000000000000000009F
:1071F000000000000000000000000000000000008F
:1072000000F002F800F070F80AA090E8000C824448
:107210008344AAF10107DA4501D100F065F8AFF225
:10722000090EBAE80F0013F0010F18BFFB1A43F064
:107230000103184708F7020028F702000A444FF03C
:10724000000C10F8013B13F0070408BF10F8014BC5
:107250001D1108BF10F8015B641E05D010F8016B0A
:10726000641E01F8016BF9D113F0080F1EBF10F86E
:10727000014BAD1C0C1B09D16D1E58BF01F801CB91
:10728000FAD505E014F8016B01F8016B6D1EF9D514
:107290009142D6D370470000002300240025002629
:1072A000103A28BF78C1FBD8520728BF30C148BF69
:1072B0000B60704764292AF0D98178292AF012825C
:1072C00073292AF00487002070471FB52BF0F5F9C9
:1072D0002AF0EEFD0400002000212BF0C5F9401C2F
:1072E00060601FBD10B510BD2BF089F91146FFF786
:1072F000ECFF0EF069FB2BF0A7F903B4FFF7F2FFE8
:1073000003BC02F0E9FE0000EFF308807047EFF3E2
:10731000098070476846704780F30988704700000D
:10732000EFF308807047EFF30980704768467047B5
:1073300030B4044654E8000F0D4644E80053002BD7
:10734000F8D1156030BC704730B4044654E8000FE3
:1073500040EA010544E80053002BF7D1156030BC2A
:10736000704730B4044654E8000F00EA010544E8D1
:107370000053002BF7D1156030BC704730B4044681
:1073800054E8000F80EA010544E80053002BF7D1D0
:10739000156030BC704730B4044654E8000F00EB71
:1073A000010544E80053002BF7D1156030BC70474D
:1073B00030B4044654E8000FA0EB010544E8005344
:1073C000002BF7D1156030BC704770B404464FF005
:1073D000000054E8006F0D68AE4207BF44E8002388
:1073E000012044E800630E60002B1CBF0020F0E782
:1073F00070BC704730B4044654E8000F88422CBF7C
:10740000451A054644E80053002BF5D1156030BC01
:10741000704710B5012403E04FF4FA7013F077FCC5
:10742000201E04F10104F7D110BD00002DE9FC5F1E
:1074300081460E46144698460C9D00200190D9F8CE
:1074400010B0DBF84470B9F1000F04D12C22BD4913
:10745000BDA011F0DAFBBBF1000F04D12D22B94918
:10746000BAA011F0D2FB27B92E22B649BAA011F06A
:10747000CCFB2CB126B93122B249B9A011F0C5FB21
:107480003DB1B8F1000F04D13322AE49B7A011F0DD
:10749000BCFB64B15DB10095434622463146B86EEF
:1074A00007F019FAE8B16FF07400019019E064B1C7
:1074B000D7F868A0234600223146504607F096FAD6
:1074C00078B96FF0740001900BE0D7F868A02B46F4
:1074D00042460021504607F089FA10B96FF0740057
:1074E00001900198BDE8FC9F70B5044625692E699E
:1074F00024B94E22A04994A011F087FB25B94F2250
:107500009D4992A011F081FB26B950229A4992A080
:1075100011F07BFB4FF0FF3106F16C000FF00BFA1E
:1075200070BD70B5044625696E6C24B95A22934922
:1075300085A011F06AFB25B95B22904983A011F068
:1075400064FB26B95C228D4983A011F05EFB06F135
:107550006C000FF012FA70BD10B5012013F07EFB25
:1075600010BD70B50446002524B96D22844985A05C
:1075700011F04BFB854961628549A1628549E16251
:1075800024636421844811F01DFB8448E06384492E
:107590002164284670BD2DE9FE4F07460E469246EF
:1075A00000240025A046A1460020029027B98A2287
:1075B0007C497DA011F029FB26B98B2279497FA057
:1075C00011F023FBA42011F0E8FC0446482011F040
:1075D000E4FC0546384611F039FC00F1010B584631
:1075E00011F0DBFC8046304611F030FC00F1010B5D
:1075F000584611F0D2FC814654B1A4220021204605
:1076000011F07EFB0022394604F16C000EF0BFFE43
:10761000002C6FD0002D6DD0B8F1000F6AD0B9F1F9
:10762000000F67D048220021284611F069FB384638
:1076300011F00CFC83465A463946404611F049FC8D
:10764000304611F003FC83465A463146484611F055
:1076500040FC384611F0FAFB002108F800103046D3
:1076600011F0F4FB002109F80010304603F000FD92
:10767000A066A06E18B1A06E007F0D2807D054A39D
:1076800001225BA10320009629F024FD39E0C5F812
:1076900020905146A06E07F036F8C5F80080C4F877
:1076A000A050A06E84656C642D632846FFF759FFD7
:1076B00038B153A301224EA10320009629F00AFD00
:1076C0001FE0204601F0D5FA0290029830B158A38D
:1076D000012247A1032029F0FDFC12E05DA3012255
:1076E00043A10620CDE9007629F0F4FC2046BDE850
:1076F000FE8FFFE763A301223DA1032029F0EAFCEE
:1077000000BF1CB104F16C000EF066FE204611F0C3
:1077100088FD284611F085FD404611F082FD48465F
:1077200011F07FFD0020E2E77CB504460D465B4981
:1077300003C9CDE900016A4629462046FFF72BFF21
:107740007CBD0000C4260500737069006E616E6424
:107750005F646576000000007274745F6465760093
:1077600077726974655F62756600000072656164B6
:107770005F62756600000000D3260500DC26050068
:10778000E7260500666C6173680000002D74020036
:10779000E9740200237502002043050059750200B8
:1077A000C0270900FA2605007370695F6E616E6478
:1077B0005F6465765F6E616D650000007370695F80
:1077C0006E616E645F6275735F6E616D650000006F
:1077D0004552524F523A20535049206465766963AE
:1077E00065202573206E6F7420666F756E642100AE
:1077F0006472765F6E616E645F7173706900000021
:107800004552524F523A2053504920666C6173687A
:107810002070726F6265206661696C6564206279B0
:1078200020535049206465766963652025732E00D6
:107830004552524F523A20686172647761726520F6
:107840006E616E6420696E6974206572726F722E4B
:107850000000000050726F62652053504920666C32
:107860006173682025732062792053504920646534
:107870007669636520257320737563636573732E62
:10788000000000004552524F523A2072745F6D6101
:107890006C6C6F63206661696C2E00001027050018
:1078A00010B50446402C04DB5B22F449F4A011F02F
:1078B000ACF9F94830F8140010BD10B50446214663
:1078C0000F2004F045FF10BD13B586B0044607A88D
:1078D000009005A8019001200290049820F001007A
:1078E0000490049820F00200049000200390694660
:1078F000204607F063F99DF8140008B010BD2DE98B
:10790000F04180460D4616461F4605B12EB940F29D
:107910006D42E249E2A011F078F90020FFF7CDFFB7
:10792000002405E0295D4046FFF7CEFF3055641C7A
:10793000BC42F7DB0120FFF7C0FFBDE8F081014644
:10794000C8B270470146080A70472DE9FC5F064639
:10795000884691462EB94FF41172D649D6A011F03F
:1079600054F90220FFF79CFFC0F30120D749085CBF
:1079700001904C4641F221000090002518E080273C
:1079800013E0705D384008B1012000E0002083461C
:10799000C4F3C03A4FF6FF7000EA44048BEA0A00D1
:1079A00010B141F2210044407F10002FE9DC6D1C32
:1079B0004545E4DB2046BDE8FC9F10B50220FFF7FB
:1079C0006FFFC0F30120C149085C10BD2DE9F05FD5
:1079D0000746884615460220FFF762FFC0F30030D5
:1079E000404400F0FF0AFFF7E8FF06461AFB06F0E6
:1079F00000F0FF09002411E037F81400FFF7A2FFA0
:107A0000014604FB06F0295437F81400FFF797FFEE
:107A1000014604FB06F0401C2954641C4445EBDB82
:107A20004FF6FF7249462846FFF78FFF83465846B8
:107A3000FFF788FF014604FB06F029545846FFF77C
:107A40007EFF014604FB06F0401C29544846BDE871
:107A5000F09F40F4805020F4407141F4807020F099
:107A60000101481C20F400607047F0B587B006465D
:107A70000C461546402C04DBD622954980A011F017
:107A8000C4F8022C03D12846FFF7E3FF0546002087
:107A90000490059006900190029003904FF4C0402E
:107AA00040EAC410ADF80000ADF8025004AA02216B
:107AB0006846FFF78BFF07463B4601AA04A93046FC
:107AC000FFF71DFF744820F8145007B0F0BD0246C0
:107AD00041EA02207047F3B585B00646BDF81800AC
:107AE000B0F5204F05D140F26F127A497AA011F01B
:107AF0008CF8BDF81800B0F5C04F05D14FF4B8723E
:107B000074497BA011F081F8BDF8180040F255517E
:107B1000884205D140F271126E497BA011F075F8D0
:107B2000BDF8180040F25561884205D14FF4B97292
:107B300068497BA011F069F8BDF81800112805D13B
:107B400040F2731263497CA011F05FF800200390AB
:107B500004900190029003AA012106A8FFF736FFC6
:107B600005460020FFF7A9FE002407E003A8015DF9
:107B70003046FFF7A9FE01A90855641CAC42F5DBAD
:107B80000120FFF79AFE9DF805109DF80400FFF70D
:107B90009EFF0746384607B0F0BD00203E490880EA
:107BA0004FF4A06048804FF4A260888040F20E300D
:107BB000C8800020088148814FF4C060888100207F
:107BC000C881088248828882C8824FF400400883B6
:107BD000002048838883C88308844FF40040488489
:107BE00000208884A1F87C00704710B5044600216D
:107BF000102004F0ADFD4FF4FA6017F063FC012192
:107C0000102004F0A5FD052017F05CFCFFF7C5FF70
:107C10004FF4A26202212046FFF727FF10BD10B5E6
:107C200004462146102004F093FD10BD70B50446B3
:107C300024B97022464947A010F0E7FF4CF25030BB
:107C400017F040FC0120FFF7EAFF2046FFF7CDFFC9
:107C5000FFF7A3FF00212046FFF73DFF064640F255
:107C60000E352A4603212046FFF7FFFE42F210524E
:107C700002212046FFF7F9FE70BD00001C27050019
:107C800061646472657373203C204E554D5F5245AC
:107C9000474953544552530064300020782705006B
:107CA000646174615478202626206461746152787E
:107CB000000000006B2705006461746142797465FF
:107CC0007320213D20307830300000001827050057
:107CD0004B2705005F2705004F50434F44455F5237
:107CE00052454720213D206F70636F64650000009E
:107CF0004F50434F44455F5752454720213D206F29
:107D000070636F64650000004F50434F44455F4C03
:107D10004F434B20213D206F70636F64650000006E
:107D20004F50434F44455F554E4C4F434B20213DF0
:107D3000206F70636F6465004F50434F44455F523E
:107D40004553455420213D206F70636F64650000EA
:107D50002D27050064657620213D2052545F4E5545
:107D60004C4C000070B586B005460C46402C05DB37
:107D7000AD229049AFF2F80010F047FF00200490C8
:107D80000590029003904FF4204040EAC410019007
:107D900004AA012101A8FFF719FE0646334602AAEC
:107DA00004A92846FFF7ABFD00212846FFF793FE04
:107DB000814921F81400084630F8140006B070BD5F
:107DC00010B5014608780406487802048878030252
:107DD00044EA02001843001210BDF0B587B0074610
:107DE0000C460020049005900690019002900390AC
:107DF000002500907148008838B94FF6FF720321C2
:107E00006846FFF7A2FD6D4908806C480088FFF7BF
:107E100099FD8DF8130069480088FFF790FD8DF8F3
:107E200014000C2301AA04A9384600F0D3F89DF8E9
:107E300005109DF80400FFF74AFE20800DF10700B1
:107E4000FFF7BEFF60600DF10A00FFF7B9FFA06009
:107E50004FF6FF763246092101A8FFF776FD064668
:107E60009DF80E109DF80D00FFF731FE0546AE425D
:107E700001D1658007E00020608051A3012252A15A
:107E8000032029F027F907B0F0BD2DE9FE4306468F
:107E90000020019002901120009001AA0121684663
:107EA000FFF794FD05460220FFF7FAFCC0F301201E
:107EB00047490F5C4FF004080020FFF7FEFC002448
:107EC00005E001A8015D3046FFF7FEFC641CAC42F2
:107ED000F7DB2C4604E000213046FFF7F5FC641C7C
:107EE00008FB07F0A042F6DC0120FFF7E6FC4FF4A8
:107EF0007A7017F0E7FAFFF750FE4FF4A262022102
:107F00003046FFF7B2FDBDE8FE8370B586B005468A
:107F10000020049005900290039040F2555001908B
:107F200004AA012101A8FFF751FD0646334602AA23
:107F300004A92846FFF7E3FC01212846FFF712FFBA
:107F40000120FFF7ADFCC00B00B90124204606B0AC
:107F500070BD70B586B00546002004900590029073
:107F6000039040F25560019004AA012101A8FFF797
:107F70002DFD0646334602AA04A92846FFF7BFFC9A
:107F800001212846FFF7EEFE0120FFF789FCC00B18
:107F900000B10124204606B070BD10B500211020AC
:107FA00004F0D6FB022017F08DFA0121102004F016
:107FB000CFFB10BD3827050064300020E82A0020E0
:107FC00043524320657272006472765F616473008D
:107FD00018270500F0B585B007460C4615461E4625
:107FE000009401950296049820F00100401C049032
:107FF000049820F00200801C049000200390694641
:10800000384606F0DBFD05B0F0BD38B55C2010F059
:10801000C4FF044600200F238CA28EA100902046AE
:1080200006F035FB28B18DA3012292A1032029F08F
:1080300051F8082091494870052008709048486020
:10804000204606F060FB28B18EA3012289A10320FF
:1080500029F040F8204638BD10B5044610F07CFAEF
:108060008C4803F050FB10F08CFA10BD10B50121C4
:108070000E2004F040FB28B187A301227DA103203C
:1080800029F028F810BD10B500210E2004F033FBB4
:1080900028B18BA3012277A1032029F01BF810BD82
:1080A00010B50446FFF7B1FF04462046FFF7BEFDBA
:1080B000204610BD70B504460D4629462046FFF700
:1080C0008CFE70BD00208849086088488849086097
:1080D0008849086000F5804087490860704788B08B
:1080E00000242046FFF7DCFF044601210E2004F0A7
:1080F0001CFB0023AFF29F0201210E2004F0C4FA02
:1081000028B17EA301225BA1032028F0E3FF61E0F8
:108110004FF0FF315F4803F044FA18B902A9204636
:10812000FFF7C8FF7048039902680068401C6E4B57
:1081300018607048006840F82210184604990268D8
:108140000068401C18606B48006840F82210184610
:108150000068B0F5805F3DD318460068704908603C
:10816000002019460860624800686349096888422F
:1081700005D0604800686049096888420CD15D48B4
:1081800000685B4908605C4800685A4908605848C4
:1081900000685949086007E0574800685549086079
:1081A00053480068544908605D4800680690069886
:1081B000800007904E48006805900C2205A9594898
:1081C0000FF01BFF30B158A301222AA10320009514
:1081D00028F080FF9CE71FB500210F2004F0A5FACE
:1081E00001210F2004F0B4FA0021102004F09DFAC0
:1081F0000121102004F0ACFA264803F0BDF90A2052
:108200000821CA01504BCDE90032CDE9021000230C
:108210004E4A18A14E4812F008FA044634B14DA354
:10822000012214A10320009428F054FF484812F0C2
:108230005CFA044634B153A301220EA1032000943A
:1082400028F048FF002004B010BD00007370696D75
:10825000320000007370696D323000007370692065
:108260006465766963652061747461636820666122
:10827000696C0000745F616473000000002B0020D3
:1082800000127A0073706920636F6E6669672066FA
:1082900061696C00E430002061647820646174617D
:1082A0002072656164792070696E20697271206541
:1082B0006E61626C65206661696C65640000000037
:1082C00061647820646174612072656164792070F2
:1082D000696E206972712064697361626C652066E1
:1082E00061696C6564000000F82A0020F03000200D
:1082F000F02A0020EC2A0020F42A00206164782073
:10830000646174612072656164792066756E63745E
:10831000696F6E20617474616368206661696C00C6
:10832000FC2A00203CDB00206572726F72206861BD
:108330007070656E2C2077726974655F6E616E6413
:108340005F6D713A20256400F0B00020DF800200EC
:10835000F0B4002063726561746520745F616473BA
:108360003133316D30785F746872656164206661A5
:10837000696C2C2065727220636F64653A202564F5
:1083800000000000737461727420757020745F6166
:1083900064733133316D30785F7468726561642065
:1083A0006661696C2C2065727220636F64653A2087
:1083B000256400002DE9FC4705460C461646A846F4
:1083C000D8F8A07007F12009A02C06D0B02C04D05A
:1083D000C02C02D00520BDE8FC870F208DF80400DA
:1083E0008DF80540012000903346022201A948463D
:1083F000D7F824C0E0470020EDE72DE9FE4306460C
:108400000D460027B046D8F8A04004F12009072DFA
:1084100051D2DFE805F05004111E2B384400E08AE9
:10842000070A01AA39463046FFF7C4FFA07D9DF830
:1084300004100843019047E0E08A070A01AA394680
:108440003046FFF7B7FFE18A9DF8040088430190AA
:108450003AE0208B070A01AA39463046FFF7AAFF07
:10846000207E9DF80410084301902DE0208B070A20
:1084700001AA39463046FFF79DFF218B9DF8040085
:108480008843019020E0B02701AA39463046FFF723
:1084900091FF9DF8040040F00800019014E0B0271F
:1084A00001AA39463046FFF785FF9DF8040020F009
:1084B0000800019008E0F5A30122FAA1032028F0AA
:1084C00009FEFF20BDE8FE8300BF1F208DF80800D5
:1084D0008DF809709DF804008DF80A0000200090C6
:1084E0000346032202A94846D4F824C0E0470020EE
:1084F000E8E72DE9F8430446002600200090002715
:10850000A046D8F8A050A88B060A2F7F0BE06A4639
:1085100031462046FFF74EFF9DF80000384010B965
:108520000020BDE8F883F2E72DE9F04186B0064669
:108530000020059000243746D7F8A05005F1200808
:108540009F2004900420009005AB012204A940461E
:10855000D5F824C0E0479DF817009DF816109DF847
:108560001520D4A3CDE9002102900122CDA106203F
:1085700028F0B0FD00BF47E0D74800EBC400007909
:108580009DF8151088422ED1D34800EBC4004079E5
:108590009DF81610884226D1CF4800EBC4008079A0
:1085A0009DF8171088421ED1CB4850F83400A860BF
:1085B000C94800EBC40001792973C74800EBC40027
:1085C00041796973C44800EBC4008179A973A86834
:1085D000C2A30122B3A10090062028F07BFD002059
:1085E00006B0BDE8F0819DF817009DF816109DF8C3
:1085F0001520C2A3CDE9002102900122A9A10620E5
:1086000028F068FDFF20EBE7022CB5D30020E7E758
:108610002DE9F04F97B004460E4692469846DDF895
:1086200080B04FF00009002724B9C622BD49BEA082
:1086300010F0EBFAB4F84800404504D2C722B9491B
:10864000BDA010F0E2FAB4F84A102198814204D299
:10865000C822B449C0A010F0D8FA2046039003986D
:10866000D0F8A05005F120000290216DA06D00FB14
:108670000166B4F85400216D4843B0420BD8BEA344
:10868000012288A10320009628F024FD6FF0FE004F
:1086900017B0BDE8F08F16AAB0212046FFF78AFE7A
:1086A0008146B9F1000F01D04846F1E713208DF85B
:1086B000540000208DF85500300A8DF85600F0B2B5
:1086C0008DF85700002000900346042215A9D5F824
:1086D00024C00298E047B5A1A86829F0A5FB81460F
:1086E000B9F1000F08D1B9F1000F5ED19DF8580023
:1086F00000F00800002858D0BAF1000F2FD0B8F1D0
:10870000000F2CD003208DF85000C7F303208DF804
:108710005100F8B28DF8520000208DF85300CDF8CA
:1087200000805346042214A9D5F824C00298E047DB
:108730004FF4006703208DF85000380A8DF851007F
:10874000F8B28DF8520000208DF8530040200090C0
:1087500004AB042214A9D5F824C00298E047BBF169
:10876000000F31D0219800282ED04FF4006703204D
:108770008DF85000380A8DF85100F8B28DF852008B
:1087800000208DF853004020009004AB042214A96F
:10879000D5F824C00298E047BBF1000F14D0402266
:1087A00004A9584610F0DCFA0EE003208DF85000C2
:1087B00000208DF851008DF852008DF853007EA0F6
:1087C00010F000FAFF2063E7002061E72DE9FC418B
:1087D0000446062001902646D6F8A05005F1200751
:1087E000002000900346012201A93846D5F824C094
:1087F000E0470020BDE8FC812DE9FC41044604204F
:1088000001902646D6F8A05005F1200700200090E0
:108810000346012201A93846D5F824C0E0470020CC
:10882000BDE8FC812DE9FF4F95B005460C469B46FF
:10883000DDE922860027B5F84800584505D240F208
:1088400053126C493CA010F0E0F9B5F84A00B04270
:1088500005D24FF4AA7267493FA010F0D6F9A94695
:10886000D9F8A0A00AF120000290296DA86D00FBA4
:108870000144B5F85400296D4843A04204D86FF074
:10888000FE0019B0BDE8F08FB6E000004552524F2F
:10889000523A20636D64206E6F7420737570706F30
:1088A00072742E006472765F6D74645F6E616E64C4
:1088B000000000004E616E6420666C617368206485
:1088C000657669636520696420697320307825784E
:1088D000257825782E000000902705004E616E64F3
:1088E00020666C61736820646576696365206E61DB
:1088F0006D652069732025732E000000556E6B6F27
:108900006E776E206E616E642C2064657669636597
:108910002069642069732030782578257825782EA1
:1089200000000000DC27050064657669636520218E
:108930003D204E554C4C0000646174615F6C656E67
:10894000203C3D206465766963652D3E70616765F6
:108950005F73697A6500000073706172655F6C65B2
:108960006E203C3D206465766963652D3E6F6F62C5
:108970005F73697A650000006661696C65642074E4
:108980006F207265616420706167652C2074686572
:108990002070616765202564206973206F757420DD
:1089A0006F6620626F756E642E0000005732354E80
:1089B0003031475600000000425546206269743D40
:1089C000302C77696C6C2072656164206F6E652055
:1089D0007061676520746F20656E64206F66207417
:1089E0006865206E616E642C544F444F2E2E2E2EDF
:1089F0002E2E0A00E7270500179800287ED0BBF12D
:108A0000000FFBD0002702208DF85000380A8DF8A7
:108A100051008DF8527002212846FFF7EEFC2846DF
:108A2000FFF7D4FECDF800B0D9F86800032214A9EE
:108A3000179B05F0C5FE10208DF84C0000208DF826
:108A40004D00200A8DF84E00E0B28DF84F00002056
:108A500000900346042213A9DAF824C00298E047E4
:108A60002846FFF746FD2846FFF7C6FE01212846A7
:108A7000FFF7C3FCB8F1000F45D0002EFCD0B8F1D1
:108A8000000F05D026B13246414603A829F0D8F898
:108A90004FF4006702208DF85000380A8DF851001D
:108AA000F8B28DF8520002212846FFF7A6FC2846AE
:108AB000FFF78CFE009603AB032214A9D9F86800D7
:108AC00005F07EFE10208DF84C0000208DF84D0042
:108AD000200A8DF84E00E0B28DF84F000020009083
:108AE0000346042213A9DAF824C00298E047284676
:108AF000FFF7FFFC2846FFF77FFE00E004E00121BE
:108B00002846FFF77AFC3CE0B8F1000F39D0C6B335
:108B10004FF4006702208DF85000380A8DF851009C
:108B2000F8B28DF8520002212846FFF766FC28466D
:108B3000FFF74CFE00964346032214A9D9F86800BB
:108B400005F03EFE10208DF84C0000208DF84D0001
:108B5000200A8DF84E00E0B28DF84F000020009002
:108B60000346042213A9DAF824C00298E0472846F5
:108B7000FFF7BFFC2846FFF73FFE01212846FFF71D
:108B80003CFC002019B0BDE8F08F2DE9FC470446FD
:108B90000D4600260027A146D9F8A08008F1200A3A
:108BA00002212046FFF729FC2046FFF70FFEA06DAB
:108BB0000544B4F85000684387B2D8208DF804000B
:108BC00000208DF80500380A8DF80600F8B28DF8FF
:108BD0000700002000900346042201A95046D8F85F
:108BE00024C0E04706465EB162A30122AFF24C31D9
:108BF0000320009628F06EFA6FF0FE00BDE8FC87B7
:108C00002046FFF776FC2046FFF7F6FD01212046BF
:108C1000FFF7F3FB0020F1E7034600207047024610
:108C20000020704702460020704770B505460024BA
:108C300000BF04E0A1012846FFF7A7FF641CB4F5BC
:108C4000806FF7DB002070BD2DE9FC41044626460D
:108C5000D6F8A05005F12007FF20019000200090D9
:108C60000346012201A93846D5F824C0E047BDE8F3
:108C7000FC812DE9F843044600270026A046D8F8D9
:108C8000A0502046FFF750FC07461FB16FF0FE00D2
:108C9000BDE8F88300262DE03E4901EB0611A868E7
:108CA0000968884224D1A86828613A4800EB061078
:108CB00001792975374800EB061001892983354869
:108CC00000EB0610C188E982324800EB061081896A
:108CD000A983304800EB061041896983287D2EA3C3
:108CE0000122AFF240410090062028F0F3F903E0A2
:108CF000701CC6B2022ECFD300BF287D012813D12D
:108D0000C00224F8480F4020A0600120E0804020ED
:108D100060802820A0800020206140F2FF30606148
:108D2000401CA081483C06E023A30122AFF28C4105
:108D3000062028F0CFF9284820662146286803F04D
:108D4000B3FF07462FB1204602F0B4F96FF0FE00E2
:108D50009EE704212046FFF750FB05212046FFF740
:108D60004CFB1EA30122AFF2C441062028F0B2F949
:108D700000208DE7657261736520626C6F636B2004
:108D80006572722E20657272206E756D2025782EA8
:108D900000000000A02705004E616E6420666C6133
:108DA0007368206361706163697479206973202539
:108DB0006420476269742E00544F444F3A206F7408
:108DC00068657220636170616369747920636F6E96
:108DD0006669672E00000000C02705004E616E64C2
:108DE00020666C61736820696E69742073756363B3
:108DF0006573732E000000001FB54FF00C0938E0BA
:108E00004FF0FF330C2201A948480FF0DDFA054668
:108E10004D4528D148F20241454809F035FA04464B
:108E2000002C18DBDDF8048041462046039A09F047
:108E3000A3FA06460399B14209D00FF02DFF074669
:108E40003CA3012244A10320009728F043F92046C7
:108E500009F048FA0DE042A301223FA1032000944B
:108E600028F038F905E045A301223BA1032028F0B2
:108E700031F9C5E77FB55C2010F08FF80646002079
:108E8000172342A243A10090304605F000FC04469F
:108E900044B142A3012230A1032028F01BF9FF2096
:108EA00004B070BD3BA145A0FEF73EFC00250020AC
:108EB000034644A245A1009040A008F00CFF0546DF
:108EC0003DB143A3012224A10320009528F002F91B
:108ED00005E046A3012220A1062028F0FBF80A2085
:108EE00009214FF48052464BCDE90032CDE9021002
:108EF0000023444A44A1484811F097FB044634B18A
:108F000046A3012214A10320009428F0E3F842486C
:108F100011F0EBFB044634B14BA301220EA1032058
:108F2000009428F0D7F80020BAE700003CDB0020CE
:108F3000ADB5002077726974652066696C6520663E
:108F400061696C2C207468726561642D3E65727273
:108F50006F723A2025780000745F77323500000088
:108F60006F70656E2066696C65206661696C2C2087
:108F70006572726F723A2025640000007265637634
:108F8000206D71206661696C000000007370696D6E
:108F9000330000007370696D333000006E616E64E1
:108FA000206465762061747461636820746F206248
:108FB0007573206661696C65642E00006E616E6475
:108FC0003000000075666673000000002F0000008E
:108FD00075666673206D6F756E74206661696C2EA0
:108FE000204572726F723A202564000075666673C0
:108FF000206D6F756E7420737563636573732E00D7
:109000002DB60020F98D0200745F77726974655F78
:109010006E616E640000000030C60020696E6974E5
:1090200020745F77726974655F6E616E645F7468E7
:1090300072656164206661696C2C206572722063C0
:109040006F64653A202564007374617274207570D2
:1090500020745F77726974655F6E616E645F7468B7
:1090600072656164206661696C2C20657272206390
:109070006F64653A2025640038B50FF06DFA0AF088
:109080002BFEFEF744F92830FEF746F90625FEF7D9
:1090900041F950F8254014F10F0F10D0E01D0ED00B
:1090A000E01C0CD014F11F0F09D014F1170F06D0DB
:1090B00014F1130F03D06D1CEDB2142DE7D9FEF798
:1090C00029F96D1C00EB8501204600F0AEFD0CF087
:1090D000C8FB009058A301225EA1032027F0FAFFED
:1090E00028F074F9BDE838400FF04BBAFEB50646DB
:1090F0000D4614460FF030FA0AF0EEFD54A301229B
:1091000054A1032027F0E6FF28F060F9CDE90065BF
:1091100051A301224FA10320029427F0DBFF28F086
:1091200055F9FEF7F7F800F0CEFA0CF09AFB009034
:1091300041A3012247A1032027F0CCFF28F046F9E4
:10914000BDE8FE400FF01DBA08B501210091FFF700
:1091500093FF9DF800000128FBD0002008BD08B552
:1091600001230093FFF7C2FF9DF800000128FBD008
:1091700008BD10B5414C2068002801D0002010BD6A
:109180003FA23FA13FA000F0CBF8414801F0A7FC6F
:10919000404810F0D4F801202060002010BD38B500
:1091A0000D463D4C022804DA3CA00FF00BFD0020D8
:1091B00038BD48A1686828F037FE58B148A16868F2
:1091C00028F032FEA8B149A1686828F02DFE0028D9
:1091D0002AD02FE0206840F0100020600A241CA054
:1091E0000FF034FE94FBF0F142A00FF0EBFC0020F6
:1091F00038BD206840F00800206000210868009019
:109200003EA0009A0FF0DEFC0421086800903BA00D
:10921000009A0FF0D7FC03210868009037A0009A4D
:109220000FF0D0FC002038BD4FF4A9723A493BA0A2
:109230000FF0EBFC002038BD43757272656E742030
:1092400073797374656D207469636B3A20256C645F
:1092500000000000636D6200282573292068617397
:1092600020617373657274206661696C6564206146
:10927000742025733A256C642E000000082B002012
:10928000312E300072742D746872656164000000C4
:10929000499102005F91020014ED00E0506C65619D
:1092A000736520696E7075742027636D625F7465E5
:1092B0007374203C44495642595A45524F7C554E8E
:1092C000414C49474E45447C4153534552543E27F7
:1092D000200A000044495642595A45524F000000A6
:1092E000554E414C49474E454400000041535345BB
:1092F000525400007A3A25640A00000061646472E6
:109300003A3078253032582076616C75653A30787D
:10931000253038580D0A0000F32705003000000002
:1093200070B504460E46154620222146FE4828F018
:109330004FFD20223146FD4828F04AFD20222946D3
:10934000FB4828F045FDFB48FB490860FB480968DD
:10935000401AFB490860FB48FB490860FB48096864
:10936000401AFB490860F648006848B9F9480122EC
:10937000F9A10368032027F0ADFE28F027F870BD9F
:109380000120F649087000BFF9E70EB5E848E74943
:10939000E54ACDE900210290EE480122EEA14368A2
:1093A000032027F097FE28F011F80EBD7CB5064685
:1093B0000C4615466CB9EA48EAA1EDA30122CDE9B5
:1093C0000010E5A1032027F085FE27F0FFFF00BF76
:1093D000FEE76DB9E248EEA1E5A30122CDE9001058
:1093E000DDA1032027F076FE27F0F0FF00BFFEE7A7
:1093F00011F076F8006B206011F072F8406B286075
:1094000011F06EF8406A30607CBD10B511F068F85C
:1094100010BD2DE9FC4105460E4614461027DE48D6
:109420000078F8B1DD48007850B1CA4800940122B4
:10943000C9A18369032027F04DFE27F0C7FF09E08B
:10944000C44800940122C4A1C369032027F042FE4E
:1094500027F0BCFFAC4201D22C4603E0A819A04281
:1094600000D2AC19BB480122BBA10369032027F03D
:1094700031FE27F0ABFF0CE02068C9A30122B6A1A2
:10948000CDE90040032027F025FE27F09FFF241D93
:109490007F1EA819A04201D9002FEDD1C8A3012237
:1094A000ADA1032027F016FE27F090FFBDE8FC8158
:1094B00001460B884A8802F47840B0F5784F06D10F
:1094C00003F47840B0F5704F01D10120704702F4E9
:1094D0007F40B0F58E4F01D10120F7E70020F5E77E
:1094E0002DE9F0470746884614469946DDF820A046
:1094F000002621E02068051F05F0010000B91AE0F0
:109500002068451E90480068001D854212D38E4891
:1095100000688F4909680844A8420BD3202E09D25D
:10952000281FFFF7C5FF28B1464503D23046761CF9
:1095300047F8205000BF241D09EB0A00A042D9D8EB
:109540003046BDE8F0872DE9FE4F064688461746AF
:109550007948006802900025794800680090A94683
:10956000A148007848B38C480078E8B99F488269E0
:1095700028466D1C46F820209C484069441E7248CD
:109580000068844210D37048006871490968084433
:10959000A04209D3202D07D2454505D228466D1C8F
:1095A00046F820404FF001097C48007888B16A46AF
:1095B00002A901A8FFF7FAFE0BE0FDF7B7FE82460D
:1095C000FDF7B1FE824504D16A4602A901A8FFF762
:1095D000EDFE7148007800B1029F2AE03868041F50
:1095E00004F0010000B923E03868441E56480068C2
:1095F000001D84421BD3544800685549096808443B
:10960000A04214D3202D12D2201FFFF751FF70B1BA
:1096100045450CD2022D06D1B9F1000F03D0706878
:10962000A04200D104E028466D1C46F8204000BF4F
:109630003F1D009902980844B842CFD82846BDE89B
:10964000FE8F70B5A4B006460025802104A828F03E
:1096500098FB3246202104A8FFF775FF0546002439
:1096600010E004A951F8242004EBC401604BC81891
:1096700060A127F07DFF202104EBC40008305C4A84
:109680001154641CAC42ECD395B1594905EBC500AB
:109690005AA2254BCDE90032CDE902012D48012225
:1096A0002DA1036A032027F015FD27F08FFE08E0A7
:1096B0002848012228A1436A032027F00BFD27F048
:1096C00085FE24B070BD7FB50446FDF72FFE05462C
:1096D0002248007868B94B484BA125A30122CDE967
:1096E00000101DA1032027F0F5FC27F06FFE00BF3E
:1096F000FEE747A3012218A1032027F0EBFC27F087
:1097000065FEFFF742FEFDF70BFEA8420AD11148A5
:10971000012211A1C368032027F0DCFC27F056FECC
:10972000224677E07DE00000CCC60020EDC6002098
:109730000EC70020206D01200C2B002020AD012041
:10974000102B002000700200142B0020BC6A0500C2
:10975000182B0020FC270500636D62001C2B0020E5
:109760009428050073746172745F61646472000010
:1097700028257329206861732061737365727420D2
:109780006661696C65642061742025732E00000099
:1097900073697A65000000001E2B0020202B00203A
:1097A0002020616464723A202530386C78202020B3
:1097B00020646174613A202530386C780000000024
:1097C0003D3D3D3D3D3D3D3D3D3D3D3D3D3D3D3DC9
:1097D0003D3D3D3D3D3D3D3D3D3D3D3D3D3D3D3DB9
:1097E0003D3D3D3D000000001D2B002050C80020E5
:1097F0002FC700202530386C780000002E61786675
:1098000000000000AE280500696E69745F6F6B0090
:1098100020000000F9480168F9480068FFF7F9FDE9
:109820001CE0FDF780FDA84218D1FFF7EEFD0646CB
:109830000090F4480122AFF2E0018368032027F092
:1098400049FC27F0C3FD01AA02A903A8FFF7AEFD5A
:109850002246DDE90110FFF7DCFD00BF2046FFF7DF
:10986000F0FE7FBD08B5E84890F83800C0F340002E
:1098700048B1E4480122AFF22011436B032027F0E6
:1098800029FC27F0A3FDE048806BC0F3807000281E
:109890007ED0DD4890F8240000286ED0DA4890F899
:1098A000240000F0010048B1D6480122AFF258115F
:1098B000836B032027F00EFC27F088FDD24890F838
:1098C0002400C0F3400048B1CE480122AFF2781125
:1098D000C36B032027F0FEFB27F078FDCA4890F801
:1098E0002400C0F3C00048B1C6480122AFF298116D
:1098F000036C032027F0EEFB27F068FDC24890F8C8
:109900002400C0F3001048B1BE480122AFF2B811E4
:10991000436C032027F0DEFB27F058FDBA4890F88F
:109920002400C0F3401048B1B6480122AFF2D8116C
:10993000836C032027F0CEFB27F048FDB24890F857
:109940002400C009C8B1B04890F8240000F001001C
:1099500028B9AD4890F82400C0F3400068B1AA4887
:10996000806A0090A7480122AFF21421D0F890300D
:10997000032027F0AFFB27F029FDA34890F82C0027
:1099800000287AD0A04890F82C0000F0010000E0F8
:10999000D5E048B19B480122AFF24421C36C0320BB
:1099A00027F098FB27F012FD974890F82C00C0F3A1
:1099B000400048B193480122AFF26421036D0320B7
:1099C00027F088FB27F002FD8F4890F82C00C0F3A9
:1099D000800048B18B480122AFF28421436D0320FF
:1099E00027F078FB27F0F2FC874890F82C00C0F3B2
:1099F000C00048B183480122AFF2A421836D032047
:109A000027F068FB27F0E2FC7F4890F82C00C0F3B9
:109A1000001048B17B480122AFF2C421C36D03207E
:109A200027F058FB27F0D2FC774890F82C00C0F3C1
:109A3000401048B173480122AFF2E421036E0320C5
:109A400027F048FB27F0C2FC6F4890F82C00C009B3
:109A500098B16D4890F82C00C0F3400068B16A4896
:109A6000006B009067480122AFF21431D0F89430B7
:109A7000032027F02FFB27F0A9FC6348808E0028E5
:109A80005DD0614890F8340000F0010048B15D48B5
:109A90000122AFF23C31436E032027F01BFB27F07D
:109AA00095FC594890F83400C0F3400048B155483F
:109AB0000122AFF25C31836E032027F00BFB27F00D
:109AC00085FC514890F83400C0F3800048B14D48FF
:109AD0000122AFF27C31C36E032027F0FBFA27F09E
:109AE00075FC494890F83400C0F3C00048B14548BF
:109AF0000122AFF29C31036F032027F0EBFA27F02D
:109B000065FC4148808EC0F3002048B13D480122E9
:109B1000AFF2BC31436F032027F0DCFA27F056FC8C
:109B20003948808EC0F3402048B136480122AFF258
:109B3000D831836F032027F0CDFA27F047FC324855
:109B4000806BC00F002857D02F48C06B002853D01F
:109B50002D4890F83C0000F0010048B1294801224E
:109B6000AFF20C41C36F032027F0B4FA27F02EFCAC
:109B7000254890F83C00C0F3400050B12148012234
:109B8000AFF22C41D0F88030032027F0A3FA27F061
:109B90001DFC1D4890F83C00C0F3800050B11948EE
:109BA0000122AFF24C41D0F88430032027F092FA22
:109BB00027F00CFC144890F83C00C0F3C00050B1F2
:109BC00010480122AFF27041D0F88830032027F00E
:109BD00081FA27F0FBFB0C4890F83C00C0F3001022
:109BE00050B108480122AFF29041D0F88C300320E8
:109BF00027F070FA27F0EAFB08BD0000102B0020C8
:109C00000C2B0020FC27050050C800200246012034
:109C100020EA12109B4B187018460078012802D1D8
:109C200001F1480070470846FCE72DE9F04194B087
:109C300007460E46344625460020139020229249BE
:109C40000BA828F042F8914800680A9090480068F4
:109C500009909048007880B98F48AFF25441AFF234
:109C6000F0430122CDE90010AFF21451032027F098
:109C700031FA27F0ABFB00BFFEE78848007878B1E7
:109C8000854887A1AFF218530122CDE90010AFF249
:109C90003851032027F01EFA27F098FB00BFFEE79B
:109CA00001207E490870AFF298430122AFF258516B
:109CB000032027F00FFA27F089FBFFF766FBC7F3B5
:109CC00080007A49087008460078E0B1FFF79DFBF4
:109CD00010B1FFF79AFB00E075A08046009076482F
:109CE0000122AFF28C51836A032027F0F3F927F0A9
:109CF0006DFBFDF718FB0446054609AA0AA913A83F
:109D0000FFF754FB09E06C480122AFF2B451C36A7B
:109D1000032027F0DFF927F059FB2034214638468D
:109D2000FFF774FF04460A98844204D3DDE9091062
:109D30000844A04216D2DDE9091008440A995F4B95
:109D40000122CDE900410290AFF2F451032027F047
:109D5000C1F927F03BFB01205949087053480078AE
:109D600000B1139C2246DDE90910FFF752FB52486F
:109D70000122AFF21C61036B032027F0ABF927F03F
:109D800025FB50492868086068684860A8688860B2
:109D9000E868C8602869086168694861A8698861DD
:109DA000E869C8610846C068464A0E9992680D9BEA
:109DB000CDE90432CDE906104248426841490C9889
:109DC00009680B9BCDE90031CDE902023EA30122D7
:109DD000AFF27C61032027F07DF927F0F7FA3948CC
:109DE000C169129A8069119BCDE90430CDE9062141
:109DF00034484269109900690F9BCDE90030CDE9E4
:109E0000021231A30122AFF2B061032027F062F900
:109E100027F0DCFA37A30122AFF2C461032027F058
:109E200059F927F0D3FA43480068264908624148A7
:109E3000001D007881F824003E48103000688862D8
:109E40003C48401D007881F82C003A4814300068E6
:109E500008633848801D00888886364808300068C6
:109E6000886334480C300088C86332481830008852
:109E70000864FFF7F7FC2046FFF7E3FB14B0BDE8EA
:109E8000F08100001F2B0020D82805000C2B00209B
:109E9000102B00201C2B0020C22805001D2B0020A9
:109EA000216F6E5F6661756C74000000202B0020CE
:109EB0004E4F5F4E414D4500FC270500144C0500F8
:109EC0001E2B002050C80020202025733A2025306A
:109ED0003878202025733A202530387820202573C3
:109EE0003A2025303878202025733A2025303878DC
:109EF000000000003D3D3D3D3D3D3D3D3D3D3D3D86
:109F00003D3D3D3D3D3D3D3D3D3D3D3D3D3D3D3D81
:109F10003D3D3D3D3D3D3D3D3D3D3D3D3D3D3D3D71
:109F20003D3D3D3D3D3D3D3D3D3D3D3D3D3D3D3D61
:109F30003D3D000024ED00E02DE9F04107460C46D0
:109F400000257749384627F06FFF10B90020BDE89B
:109F5000F0817449384627F067FF08B90120F6E719
:109F60007149384627F060FF08B90220EFE704F096
:109F7000020080B104F0040018B140F24220054311
:109F800016E004F0080018B140F2424005430FE02B
:109F900045F002050CE004F0040018B140F2412045
:109FA000054305E004F0080010B140F241400543CC
:109FB00000222946384608F067F90646002E02DAE4
:109FC0004FF0FF30C3E73046C1E710B50446022C1E
:109FD00001DC002010BD204608F084F9FAE72DE9E5
:109FE000FC4104460F461646984664B94FA05E49A8
:109FF0005EA30122CDE900105EA1042027F06AF8DB
:10A000000020BDE8FC81012C01D0022C02D14FF0D0
:10A01000FF30F6E732463946204608F085F9054616
:10A02000002D01DB701BECE70020EAE72DE9F0478B
:10A0300004460F4616469946012C01D0022C0FD13A
:10A040000FF06CF88046B8F1000F06D033463A4660
:10A050004FF0FF31404601F075F90020BDE8F08770
:10A0600014B94FF0FF30F9E732463946204608F080
:10A0700083F90546002D04DB204608F04DFA701BDD
:10A08000ECE70020EAE710B50446204608F044FA61
:10A0900010BD70B504460D46022C01DA002070BDDB
:10A0A00000222946204608F08FF9F8E770B50646E9
:10A0B0000C461546234634A2294630460EF0FDFFD5
:10A0C000012070BD02460020704710B50446E1B281
:10A0D0002FA00EF077FD10BD0446204600F05AF880
:10A0E00000BFFEE710B590B00446022C02DA002053
:10A0F00010B010BD6946204608F0E5F90598F7E76D
:10A100000146002903DB022901DC01207047002001
:10A11000FCE710B50446204608F0B3F910BD000076
:10A12000F8280500FE28050005290500506C65612A
:10A13000736520656E61626C652052545F555349AA
:10A140004E475F504F5349585F465320616E64201D
:10A1500052545F5553494E475F504F5349585F53D0
:10A160005444494F000000000C29050025733A2093
:10A170002573000061726D6C6962632E737973637D
:10A18000616C6C730000000074656D2530336400F1
:10A19000256300007CB5054610F0A2F9044664B1C1
:10A1A00055A3012259A10420CDE9004526F092FFD4
:10A1B00000220121204610F0B4FD7CBD70B504469C
:10A1C0003CB120460EF042FE05462946204609F0E5
:10A1D000C6F9002070BDF0B589B005460E46694647
:10A1E00016B9002009B0F0BD242A01DC012A01DCE7
:10A1F0000020F7E70A2A03D1002D01DA012000E050
:10A2000000208446BCF1000F01D06C4200E02C46D7
:10A2100010E0B4FBF2F002FB1047B4FBF2F40A2F9B
:10A2200004DA07F1300001F8010B03E007F15700F1
:10A2300001F8010B002CECD168468142E9D033468D
:10A24000BCF1000F02D02D2003F8010B04E0481EE2
:10A250000146007803F8010B68468142F7D80020D8
:10A2600018703046BEE770B504460D4616463246B5
:10A2700029462046FFF7AFFF70BDF0B589B007460D
:10A280000B4669463E4613B9002009B0F0BD242AAA
:10A2900001DC012A01DC0020F7E710E0B6FBF2F058
:10A2A00002FB1064B6FBF2F60A2C04DA04F130006B
:10A2B00001F8010B03E004F1570001F8010B002E37
:10A2C000ECD168468142E9D01D4604E0481E0146B3
:10A2D000007805F8010B68468142F7D80020287005
:10A2E0001846D2E770B504460D4616463246294652
:10A2F0002046FFF7C2FF70BD7468726561643A253D
:10A300007320657869743A25642100007374646C65
:10A310006962000001460A46C81701EB9070801080
:10A32000A1EB800070B9642091FBF0F300FB1310E7
:10A3300030B94FF4C87091FBF0F300FB131008B96B
:10A34000012070470020FCE70A2291FBF2F2303234
:10A3500002700A2291FBF2F302FB131230324270B8
:10A36000704770B504460D466FF0FE06FB48006866
:10A3700020B9FBA000F07CFEF8490860F7480068AF
:10A3800088B10021F548006800F010FFA0B92A4606
:10A390002146F248006801F007F80646EF480068D9
:10A3A00000F06CFF08E0EFA30122F5A1042026F0E5
:10A3B00091FE6FF02C0070BD3046FCE770B504468E
:10A3C00000F0CAFA0546F0480460284600F0C8FAD2
:10A3D00070BD70B500F0C0FA0546EB480468284629
:10A3E00000F0BEFA204670BD002070472DE9F04114
:10A3F00007460C4607B12CB915200EF05EFC002074
:10A40000BDE8F0812C22002120460EF079FCDF49C6
:10A410003868B0FBF1F201FB12053C2095FBF0F12E
:10A4200000FB115020603C2095FBF0F595FBF0F10E
:10A4300000FB115060603C2095FBF0F0A060D34918
:10A440003868B0FBF1F5281D072190FBF1F201FB04
:10A450001200A06140F2B27600BF3046FFF75AFF0B
:10A4600010B14FF4B77001E040F26D1080464545E1
:10A4700002DBA5EB080500E001E0761CEDE700BF7C
:10A48000A6F26C706061E5610120E0603046FFF784
:10A4900041FF30B13A2D04DD3B2D01D10220E060B7
:10A4A0006D1E0B2600E0761E26B1B94830F9160065
:10A4B000A842F8DC2661B64931F91610691AE0683D
:10A4C0000844E060FFF790FF2062204698E710B54F
:10A4D0000446B0492046FFF789FF10BD38B5044651
:10A4E0000D46FFF776FF216808440090294668462C
:10A4F000FFF77CFF38BD10B50446A7492046FFF79B
:10A50000EDFF10BD2DE9F041044634B915200EF0E1
:10A51000D4FB4FF0FF30BDE8F0816069A0F1460543
:10A5200020683C280DDD3C21206890FBF1F061683B
:10A53000084460603C21206890FBF1F201FB1200AE
:10A54000206060683C280DDB3C21606890FBF1F0E6
:10A55000A1680844A0603C21606890FBF1F201FB17
:10A5600012006060A06818280DDB1821A06890FB1D
:10A57000F1F0E1680844E0601821A06890FBF1F276
:10A5800001FB1200A06020690C280DDB0C21206962
:10A5900090FBF1F06169084460610C21206990FB37
:10A5A000F1F201FB120020611DE02069012808D1B1
:10A5B000616901F26C70FFF7ADFE10B1E068401EFA
:10A5C000E060734AD4E9030132F91110401AE060E7
:10A5D0002069401C206120690B2804DD00202061D7
:10A5E0006069401C6061D4E90310401C684A32F97C
:10A5F00010008142D9DC6069462805DA05200EF09A
:10A600005CFB4FF0FF3086E740F26D106843691C39
:10A6100000EB9106832D0FD3833D6420B5FBF0F54D
:10A62000A80800EB4000401C361A05F00300054660
:10A63000032800D16D1E761B616901F26C70FFF773
:10A6400069FE2169012901DD012100E000210840A6
:10A650004F4A216932F91110E2681144491E084439
:10A660000644E0610727301DB0FBF7F107FB11003E
:10A67000A06118277E433C27D4E90101314401FB46
:10A680000700216800FB071045E770B5054628461E
:10A69000FFF738FF0446FFF79CFE241A204670BDE2
:10A6A00070B505460C4605B124B915200EF005FB22
:10A6B000002070BD1A22002120460EF021FB3748F1
:10A6C00000680EF0C3FBA969B0EB810F07DD3448C9
:10A6D00000680EF0BBFB2969B0EB810F64DC314BE5
:10A6E000012227A1042026F0F5FC2C480068006810
:10A6F00020602B4800680068606004F10800E96889
:10A70000FFF722FE207A302801D12020207220205D
:10A71000A07204F10B00A968FFF716FE3A206073DF
:10A7200004F10E006968FFF70FFE3A20207404F16F
:10A7300011002968FFF708FE2020E074142104F1BD
:10A740001400FFF701FE002104F11600FFF7FCFDE5
:10A750000A202076002060762046AAE7382B0020C9
:10A760007274630043616E6E6F742066696E64205C
:10A7700061205254432064657669636521000000BE
:10A7800074696D6500000000342B002080510100C9
:10A790001629050094C80020C0C80020282B0020DE
:10A7A000302B0020B44C05006849A869096851F8AD
:10A7B0002000206066492869096851F8200060601F
:10A7C00004F10800E968FFF7BFFD207A302801D1C5
:10A7D000202020722020A07204F10B00A968FFF74E
:10A7E000B3FD3A20607304F10E006968FFF7ACFD19
:10A7F0003A20207404F111002968FFF7A5FD2020FC
:10A80000E074686900F26C70642190FBF1F63146E7
:10A8100004F11400FFF798FD686900F26C70642180
:10A8200090FBF1F201FB1206314604F11600FFF72E
:10A830008BFD0A20207600206076204639E710B58F
:10A84000044644492046FFF72BFF10BD70B58CB07D
:10A8500004460D4601A92046FFF740FE064629465C
:10A86000FFF71EFF0CB070BD70B504462046FFF721
:10A8700042FE0546FFF7E3FF70BD70B504460D4686
:10A88000601B27F007FF41EC100B70BD38B5044684
:10A89000694640F20160FFF764FD28B115200EF013
:10A8A0000CFA4FF0FF3038BD0CB1009820600098D2
:10A8B000F9E710B50AF0D5FF10BD10B504463CB15C
:10A8C000214640F20260FFF74CFD08B9002010BDA0
:10A8D00015200EF0F2F94FF0FF30F8E770B504469E
:10A8E0000D4645B100206860FFF773FD3C2190FBE9
:10A8F000F1F04042286054B10020206060602146A1
:10A9000040F20360FFF72DFD08B9002070BD05205F
:10A910000EF0D3F94FF0FF30F8E770B504460D465E
:10A920006CB1606800280ADB2068002807DB21463C
:10A9300040F20460FFF715FD08B9002070BD052046
:10A940000EF0BBF94FF0FF30F8E70000282B002095
:10A95000302B0020ECC80020EFF3108072B6704757
:10A9600080F310887047444A1368012B04D04FF0DD
:10A9700001031360414A1060414A116041484FF0A1
:10A98000805101607047EFF3108272B63A48016857
:10A9900051B34FF0000101603848016891B1EFF305
:10A9A00009811EF0100F08BF21ED108B21E9F00F77
:10A9B0004FF000041EF0100F08BF012441F8044DB1
:10A9C000006801602E490968096808C9B1E8F00FFC
:10A9D000002B18BFB1EC108B81F309884EF0100EDC
:10A9E000002B18BF2EF0100E82F310884EF0040ECC
:10A9F000704723490860EFF3148222F0040282F3C7
:10AA000014881E494FF0000008601B494FF00100F8
:10AA100008601D481D49D0F8002041EA020101608C
:10AA200018484FF08051016019480068006880F3B1
:10AA3000088861B662B6BFF34F8FBFF36F8F704760
:10AA40001EF0040F0CBFEFF30880EFF3098020E93C
:10AA5000F00F40F804ED40F804ED1EF0040F0CBFB9
:10AA600080F3088880F3098800B500F02AF95DF8C2
:10AA700004EB4EF0040E7047442B00203C2B0020CA
:10AA8000402B002004ED00E020ED00E00000FFFF7F
:10AA900008ED00E0F0B504460D461646301D20F0E6
:10AAA000070044380146002203E0BF4F41F82270FE
:10AAB000521C112AF9D34D624FF0000CC1F828C086
:10AAC000C1F82CC0C1F830C0C1F834C08B63CC636E
:10AAD0004FF0807CC1F840C000270F60F0BDB34943
:10AAE0000860704710B5B2A00EF06CF8B448018849
:10AAF000B4A00EF067F8B248008800F0010010B171
:10AB0000B6A00EF05FF8AE48008800F0020010B169
:10AB1000B5A00EF057F8AA48008800F0040010B164
:10AB2000B4A00EF04FF8A648008800F0080010B15D
:10AB3000B2A00EF047F8A248008800F4807010B16F
:10AB4000B0A00EF03FF89E48008800F4007010B1ED
:10AB5000AFA00EF037F899A00EF034F810BD10B584
:10AB6000AEA00EF02FF89648401E0178AEA00EF071
:10AB700029F89348401E007800F0010010B1B0A001
:10AB80000EF020F88E48401E007800F0020010B150
:10AB9000AEA00EF017F88A48401E007800F00400BE
:10ABA00010B1ADA00EF00EF88548401E007800F000
:10ABB000080010B1ACA00EF005F88148401E0078E6
:10ABC00000F0100010B1ABA00DF0FCFF7C48401E5F
:10ABD000007800F0800030B179480E300168A7A0FD
:10ABE0000DF0F0FF02E075A00DF0ECFF10BD10B508
:10ABF000A6A00DF0E7FF7248801E0178A8A00DF016
:10AC0000E1FF6F48801E007800F0010010B1AAA09B
:10AC10000DF0D8FF6A48801E007800F0020010B1E5
:10AC2000A8A00DF0CFFF6648801E007800F0080055
:10AC300010B1A7A00DF0C6FF6148801E007800F09B
:10AC4000100010B1A5A00DF0BDFF5D48801E00787A
:10AC500000F0800030B15A480A300168A2A00DF01F
:10AC6000B1FF02E055A00DF0ADFF10BD10B5544886
:10AC7000801C006800F0020010B19FA00DF0A2FF40
:10AC80004F48801C006800F0804080B14C48401E56
:10AC9000007808B1FFF763FF4948801E007808B1CB
:10ACA000FFF7A5FF4648008808B1FFF71BFF44489F
:10ACB000801C006800F0004010B195A00DF082FFEC
:10ACC00010BD2DE9F041054605F128062C1D374839
:10ACD000006840B1304635490968884707460FB9D2
:10ACE000BDE8F08100BF8EA0216C0DF06BFF90A03D
:10ACF000616A0DF067FF92A0A16A0DF063FF94A056
:10AD0000E16A0DF05FFF96A0216B0DF05BFF98A04C
:10AD100061680DF057FF9AA0A1680DF053FF9CA049
:10AD2000E1680DF04FFF9EA021690DF04BFFA0A040
:10AD300061690DF047FFA2A0A1690DF043FFA4A037
:10AD4000E1690DF03FFFA6A0216A0DF03BFFA8A02E
:10AD5000616B0DF037FFAAA0A16B0DF033FFACA023
:10AD6000E16B0DF02FFF287800F0040048B10FF0E0
:10AD7000B7FB07463946AAA00DF024FF08F0ACFF48
:10AD800002E0AFA00DF01EFF287800F0100010B90F
:10AD9000B2A00DF017FFFFF769FF00BFFEE7B34851
:10ADA00007491E3908607047EFBEADDE482B002012
:10ADB0007573616765206661756C743A0A000000FE
:10ADC0002AED00E05343425F434653525F554653DA
:10ADD000523A30782530325820000000554E444514
:10ADE00046494E5354522000494E565354415445FF
:10ADF00020000000494E5650432000004E4F435063
:10AE000020000000554E414C49474E45442000006B
:10AE100044495642595A45524F20000062757320EA
:10AE20006661756C743A0A005343425F434653525D
:10AE30005F424653523A30782530325820000000A5
:10AE4000494255534552522000000000505245439C
:10AE50004953455252200000494D505245434953F1
:10AE60004552522000000000554E53544B4552525B
:10AE70002000000053544B45525220005343422DB2
:10AE80003E424641523A253038580A006D656D20E1
:10AE90006D616E616765206661756C743A0A0000C9
:10AEA0005343425F434653525F4D4653523A3078C4
:10AEB00025303258200000004941434356494F4C49
:10AEC000200000004441434356494F4C20000000FD
:10AED0004D554E53544B4552522000004D53544B48
:10AEE00045525220000000005343422D3E4D4D413B
:10AEF000523A253038580A006661696C65642076DC
:10AF00006563746F722066657463680A00000000F0
:10AF10006465627567206576656E740A00000000DE
:10AF20007073723A203078253038780A00000000BB
:10AF30007230303A203078253038780A000000002E
:10AF40007230313A203078253038780A000000001D
:10AF50007230323A203078253038780A000000000C
:10AF60007230333A203078253038780A00000000FB
:10AF70007230343A203078253038780A00000000EA
:10AF80007230353A203078253038780A00000000D9
:10AF90007230363A203078253038780A00000000C8
:10AFA0007230373A203078253038780A00000000B7
:10AFB0007230383A203078253038780A00000000A6
:10AFC0007230393A203078253038780A0000000095
:10AFD0007231303A203078253038780A000000008D
:10AFE0007231313A203078253038780A000000007C
:10AFF0007231323A203078253038780A000000006B
:10B00000206C723A203078253038780A0000000031
:10B010002070633A203078253038780A000000002C
:10B0200068617264206661756C74206F6E2074684C
:10B03000726561643A2025730D0A0D0A0000000054
:10B0400068617264206661756C74206F6E2068613F
:10B050006E646C65720D0A0D0A00000046505520A2
:10B06000616374697665210D0A0000000400FA0529
:10B0700010B50446092120460EF04AFF10BD70B5F8
:10B0800004460D46164614B96FF0FE0070BD284602
:10B09000FFF7EEFF10B16FF0FE00F7E72A46092137
:10B0A00020460EF03AFEE683002084F82200208439
:10B0B00000BFEBE710B5044624B95F22E349E4A0E2
:10B0C0000DF0A3FD20460EF016FF092804D06022E3
:10B0D000DE49E3A00DF099FD20460EF0FBFE20B9FD
:10B0E0006122DA49EDA00DF090FD20460EF058FEE9
:10B0F000002010BD2DE9F04106460C464827E01D12
:10B1000020F00704274438460DF047FF05462DB1CF
:10B110004822002128460DF0F3FD2E772846BDE891
:10B12000F08110B5044624B99D22E649C8A00DF06F
:10B130006CFD20460EF0DFFE092804D09E22E14976
:10B14000C7A00DF062FD20460EF0C4FE20B19F2284
:10B15000DC49DDA00DF059FD20460EF021FE204611
:10B160000EF05FF810BD7CB50446002524B9B4226A
:10B17000E249B7A00DF049FDE06AA8B1A07F00F058
:10B18000100088B92046E16A8847054645B1DCA32E
:10B190000122E9A10320CDE9004525F09BFF03E052
:10B1A000E08B40F01000E08328467CBD7CB504466F
:10B1B0000E46002524B9D922E349A5A00DF025FDAE
:10B1C00020460EF098FE092804D0DA22DE49A4A019
:10B1D0000DF01BFDA07F00F01000A0B9E06A70B177
:10B1E0002046E16A884705464DB1C5A30122D2A198
:10B1F0000320CDE9004525F06DFF28467CBDE08B9E
:10B2000040F01000E083A07F00F0080038B194F80F
:10B21000200000F0080010B16FF01600EEE794F87F
:10B22000200000F0080030B1208C40F60F7108407B
:10B23000314088420BD0206B28B131462046226B2A
:10B240009047054603E040F60F703040208415B16A
:10B2500005F12D0080B934F8200F40F0080020805F
:10B26000A078401CA070A078203C28B94FF48672CA
:10B27000B549B6A00DF0C9FC2846BFE770B5044635
:10B2800000252CB940F21F12B54971A00DF0BDFC8C
:10B2900020460EF030FE092805D04FF49072B049D8
:10B2A0006FA00DF0B2FC94F8220010B96FF0FE0010
:10B2B00070BD14F8220F401E207014F8220908B146
:10B2C0000020F5E7606B18B12046616B88470546A2
:10B2D00015B105F12D0008B9002020842846E7E7C4
:10B2E0002DE9F04104460D4616461F462CB940F2A2
:10B2F0004D129C4956A00DF088FC20460EF0FBFD37
:10B30000092805D04FF4A772964955A00DF07DFC91
:10B3100094F8220030B96FF0FE000DF0CEFC002052
:10B32000BDE8F081A06B38B13B4632462946204645
:10B33000D4F838C0E047F3E76FF02C000DF0BDFC07
:10B340000020EDE72DE9F04104460D4616461F4664
:10B350002CB94FF4BC7284493DA00DF056FC204638
:10B360000EF0C9FD092805D040F279127E493CA0B3
:10B370000DF04BFC94F8220030B96FF0FE000DF098
:10B380009CFC0020BDE8F081E06B38B13B463246C2
:10B3900029462046D4F83CC0E047F3E76FF02C0084
:10B3A0000DF08BFC0020EDE770B504460D46164607
:10B3B0002CB94FF4CE726D4925A00DF026FC204625
:10B3C0000EF099FD092805D040F29D12674924A08E
:10B3D0000DF01BFC206C28B1324629462046236C18
:10B3E000984770BD6FF02C00FBE770B504460D4622
:10B3F0002CB94FF4DC725E4915A00DF006FC204616
:10B400000EF079FD092805D040F2B912584914A070
:10B410000DF0FBFB6562002070BD70B504460D4663
:10B420002CB94FF4E872534909A00DF0EEFB204609
:10B430000EF061FD092805D040F2D1124D4908A057
:10B440000DF0E3FBA562002070BD0000302905006F
:10B4500064657620213D2052545F4E554C4C0000CF
:10B4600072745F6F626A6563745F6765745F747935
:10B47000706528266465762D3E706172656E74294C
:10B48000203D3D2052545F4F626A6563745F436C98
:10B490006173735F446576696365000072745F6F02
:10B4A000626A6563745F69735F73797374656D6FE6
:10B4B000626A65637428266465762D3E70617265E4
:10B4C0006E7429004529050072745F6F626A6563B6
:10B4D000745F69735F73797374656D6F626A6563B6
:10B4E0007428266465762D3E706172656E7429201D
:10B4F0003D3D2052545F46414C53450057290500BD
:10B50000546F20696E697469616C697A652064653D
:10B51000766963653A2573206661696C65642E20DF
:10B52000546865206572726F7220636F646520696C
:10B5300073202564000000006B65726E656C2E64DC
:10B540006576696365000000662905006465762DEF
:10B550003E7265665F636F756E7420213D2030001A
:10B56000752905008529050094290500A4290500F1
:10B57000B6290500D029050070B5044624B91A2261
:10B58000784979A00DF041FBFFF7E6F90546002068
:10B590002060201D4060006000BF2846FFF7E0F9F2
:10B5A00070BD2DE9F35F054625B9392274496EA0B7
:10B5B0000DF02BFB00BF0198002848D00DF001F8DA
:10B5C0000746FFF7C9F981460EF029FF40B16C49E3
:10B5D0006CA00DF0F7FA3C22694975A00DF015FB3F
:10B5E000012F08D1664973A00DF0ECFA3C226449A2
:10B5F0006FA00DF00AFB00BFFFF7AEF982460EF018
:10B600006FFF40B95E4975A00DF0DCFA3C225C4941
:10B6100067A00DF0FAFA00BFFFF79EF983460CF021
:10B62000C5FF40B156497BA00DF0CCFA3C225449ED
:10B630005FA00DF0EAFA5846FFF792F900BF5046B6
:10B64000FFF78EF900BF4846FFF78AF900BF00BF39
:10B6500000260EF045FF0446FFF77EF98046286875
:10B66000012847D0281D00F074F820B9452244492C
:10B6700072A00DF0CAFA019810B96FF074063CE0A0
:10B680000020A063022120460FF0FFF9281D04F1DD
:10B690001C014268116042684A604160086000BF56
:10B6A00000BFFFF759F907460CF080FF40B134495D
:10B6B00058A00DF087FA582231493DA00DF0A5FAA7
:10B6C0003846FFF74DF900BF0198002809DD01AAAF
:10B6D000002104F160000FF0AFFE04F160000FF0F4
:10B6E00039FD4046FFF73CF90EF0D0FDA66BFFF7A1
:10B6F00033F980460020286000BF4046FFF730F94C
:10B700003046BDE8FC9F70B5044624B981225749F4
:10B7100015A00DF07AFA2068012800D170BDFFF75E
:10B720001BF9064601202060201D00F012F858B9D0
:10B730006068A0F11C0528460EF09EFF3046FFF71A
:10B740000FF90EF0A3FD02E03046FFF709F900BF44
:10B75000E4E701460868884201D1012070470020D3
:10B76000FCE70000EA290500636F6D706C65746981
:10B770006F6E20213D2052545F4E554C4C0000000E
:10B78000FD29050046756E6374696F6E5B25735DF8
:10B790003A207363686564756C6572206973206E06
:10B7A0006F7420617661696C61626C650A000000EB
:10B7B0003000000046756E6374696F6E5B25735DC3
:10B7C0003A20696E746572727570742069732064B2
:10B7D000697361626C65640A0000000046756E63FF
:10B7E00074696F6E5B25735D207368616C6C206E8D
:10B7F0006F742062652075736564206265666F7280
:10B8000065207363686564756C657220737461721A
:10B81000740A000046756E6374696F6E5B25735D14
:10B82000207368616C6C206E6F7420626520757384
:10B83000656420696E204953520A000072745F6C7F
:10B840006973745F6973656D707479282628636FF6
:10B850006D706C6574696F6E2D3E73757370656E77
:10B860006465645F6C69737429290000102A0500FF
:10B870004268116042684A604160086070472DE983
:10B88000F04104460D4616461F4624B92E22FB49B8
:10B89000FBA00DF0BAF9002D04DC2F22F749FDA022
:10B8A0000DF0B3F92762FE482060A580E68020896C
:10B8B0006FF30E00208160896FF30E006081208994
:10B8C00020F4004000F500402081608920F4004011
:10B8D000608104F1100000F094FB04F1180000F006
:10B8E00090FBE8000DF059FBE060E06818B96FF0DC
:10B8F0000500BDE8F0810020FBE72DE9FF4F83B094
:10B9000004460F46904624B96122E649DCA00DF0BA
:10B910007CF9E3492068884204D06222E149E2A030
:10B920000DF073F900BF0698002849D00CF049FECD
:10B930008146FFF711F802900EF071FD40B1D94930
:10B94000E1A00DF03FF96522D649EAA00DF05DF9BE
:10B95000B9F1010F08D1D349E7A00DF033F9652201
:10B96000D049E4A00DF051F900BFFEF7F5FF0190BA
:10B970000EF0B6FD40B9CB49E9A00DF023F96522E0
:10B98000C849DCA00DF041F900BFFEF7E5FF834692
:10B990000CF00CFE40B1C349EFA00DF013F9652285
:10B9A000C049D4A00DF031F95846FEF7D9FF00BFC9
:10B9B0000198FEF7D5FF00BF0298FEF7D1FF00BF48
:10B9C00000BF00260EF08CFD0546FEF7C5FF82463F
:10B9D00028E0069810B96FF074066CE00020A863A8
:10B9E000022128460FF051F805F11C0104F1100066
:10B9F000FFF73EFF0698002809DD06AA002105F1A1
:10BA000060000FF019FD05F160000FF0A3FB504638
:10BA1000FEF7A6FF0EF03AFCAE6BFEF79DFF8246E6
:10BA200006B148E06089C00B0028D2D16189C1F31A
:10BA30000E01E06840F831706189C1F30E01E068E1
:10BA400000EBC100C0F804806089401C618960F38C
:10BA50000E0161816089C0F30E00A188884203D184
:10BA600060896FF30E006081208920F400402081FE
:10BA70006089C0F30E002189C1F30E01884205D10F
:10BA8000608920F4004000F50040608104F1180056
:10BA900000F0BAFA70B9A069A0F11C0528460EF0B2
:10BAA000EBFD5046FEF75CFF0EF0F0FB304607B0B2
:10BAB000BDE8F08F00BF5046FEF752FF2EB9206A56
:10BAC00018B102212046226A90473046EFE770B550
:10BAD00004462CB940F2D912A94969A00DF095F895
:10BAE0006F492068884205D04FF4ED72A4496EA0DA
:10BAF0000DF08BF82089C00B08B1002070BDFEF757
:10BB00002BFF06466089C0F30E002189C1F30E01A8
:10BB1000884208DD6089C0F30E002189C1F30E015F
:10BB2000401A05B209E0A0886189C1F30E010844FA
:10BB30002189C1F30E01401A05B23046FEF710FF0D
:10BB4000A8B2DBE72DE9FF4F83B004460F469046CD
:10BB500024B9D6228B494AA00DF057F850492068E5
:10BB6000884204D0D72287494FA00DF04EF827B95C
:10BB7000D822844984A00DF048F8B8F1000F04D110
:10BB8000D922804985A00DF040F800BF0698002812
:10BB900049D00CF016FD8146FEF7DEFE02900EF055
:10BBA0003EFC40B1774948A00DF00CF8DC22754905
:10BBB00050A00DF02AF8B9F1010F08D171494EA03B
:10BBC0000DF000F8DC226F494AA00DF01EF800BF0E
:10BBD000FEF7C2FE01900EF083FC40B9694950A007
:10BBE0000CF0F0FFDC22674942A00DF00EF800BF18
:10BBF000FEF7B2FE83460CF0D9FC40B1614956A075
:10BC00000CF0E0FFDC225F493AA00CF0FEFF584642
:10BC1000FEF7A6FE00BF0198FEF7A2FE00BF029845
:10BC2000FEF79EFE00BF00BF00260EF059FC054641
:10BC3000FEF792FE8246C1E0069810B96FF07406D6
:10BC400018E10020A863022128460EF01EFF05F12E
:10BC50001C0104F11800FFF70BFE0698002809DD0F
:10BC600006AA002105F160000FF0E6FB05F1600077
:10BC70000FF070FA5046FEF773FE97E0232A050096
:10BC8000717565756520213D2052545F4E554C4CB1
:10BC90000000000073697A65203E2030000000003B
:10BCA0000E0EADBE362A050071756575652D3E6DAB
:10BCB00061676963203D3D204441544151554555DC
:10BCC000455F4D414749430046756E6374696F6E29
:10BCD0005B25735D3A207363686564756C657220DB
:10BCE0006973206E6F7420617661696C61626C6546
:10BCF0000A0000003000000046756E6374696F6EC4
:10BD00005B25735D3A20696E74657272757074207C
:10BD100069732064697361626C65640A00000000E5
:10BD200046756E6374696F6E5B25735D2073686121
:10BD30006C6C206E6F742062652075736564206280
:10BD400065666F7265207363686564756C657220E3
:10BD500073746172740A000046756E6374696F6E65
:10BD60005B25735D207368616C6C206E6F7420625C
:10BD700065207573656420696E204953520A00007E
:10BD8000972A0500492A0500646174615F70747226
:10BD900020213D2052545F4E554C4C0073697A650A
:10BDA00020213D2052545F4E554C4C000EF06EFA4F
:10BDB000AE6BFEF7D1FD824606B15BE02089C00B79
:10BDC00000287FF439AF2189C1F30E01E06850F8F3
:10BDD000310038602189C1F30E01E06800EBC10039
:10BDE0004068C8F800002089401C218960F30E01DA
:10BDF00021812089C0F30E00A188884203D12089C7
:10BE00006FF30E002081608920F40040608160891A
:10BE1000C0F30E002189C1F30E01884205D12089AB
:10BE200020F4004000F5004020812046FFF74FFE3F
:10BE3000E18888421DDC04F1100000F0E5F858B9F3
:10BE40002069A0F11C0528460EF016FC5046FEF7AE
:10BE500087FD0EF01BFA02E05046FEF781FD206AD6
:10BE600018B103212046226A9047304607B0BDE84A
:10BE7000F08F00BF5046FEF773FD2EB9206A18B14F
:10BE800001212046226A90473046EFE72DE9F04134
:10BE900004460D46164634B94FF4A7725E49AFF218
:10BEA00020200CF0B2FE5D492068884206D040F2A6
:10BEB0004F125949AFF210200CF0A7FE2089C00B99
:10BEC00018B16FF04300BDE8F081FEF745FD07466D
:10BED0002189C1F30E01E06850F831002860218902
:10BEE000C1F30E01E06800EBC100406830603846E5
:10BEF000FEF736FD0020E6E770B5044634B94FF48E
:10BF0000B7724749AFF288200CF07FFE43492068A2
:10BF1000884206D040F26F124149AFF274200CF013
:10BF200074FEFEF719FD064620896FF30E0020818E
:10BF300060896FF30E006081208920F4004000F5D5
:10BF400000402081608920F4004060813046FEF787
:10BF500007FD0EF038FA0EE0FEF7FEFC0646A0697B
:10BF6000A0F11C056FF0FE00A86328460EF084FBCC
:10BF70003046FEF7F5FC04F1180000F045F8002803
:10BF8000EAD00EE0FEF7E8FC06462069A0F11C05A9
:10BF90006FF0FE00A86328460EF06EFB3046FEF7F9
:10BFA000DFFC04F1100000F02FF80028EAD00EF0BA
:10BFB00018FA0EF06BF970BD70B5044634B940F252
:10BFC000BD121849AFF248300CF01FFE134920682B
:10BFD000884206D04FF4DF721249AFF234300CF0D1
:10BFE00014FE2046FFF788FFFEF7B6FC054600204A
:10BFF00020602846FEF7B4FCE0680DF012F900203E
:10C0000070BD40600060704701460868884201D1F9
:10C01000012070470020FCE75B2A05000E0EADBE34
:10C020006E2A0500822A05000146486840088A6891
:10C03000B0EB520F0BD1087900F001000A7A02F040
:10C040000102904201D1002070470120FCE702204C
:10C05000FAE770B504460E46154624B92922FD4973
:10C06000FDA00CF0D2FD002D04DC2A22F949FEA02F
:10C070000CF0CBFD207900F00100002161F30000FD
:10C080006060207A00F0010061F30000A06026608B
:10C0900025F00700E06070BD10B504462046FFF7AC
:10C0A000C3FF20B1012804D0022804D104E00020FD
:10C0B00010BDE068FCE700BFA06842086068410866
:10C0C0008A4201D9501AF3E78B1AE068C01AEFE7E9
:10C0D0002DE9F04104460F46154624B94522E549AD
:10C0E000DDA00CF092FD2046FFF7D6FFE1680E1AA6
:10C0F00016B90020BDE8F081AE4200D23546D4E941
:10C100000210A0EB5100A8420FD9A268216801EBF0
:10C1100052002A4639460CF023FEA06805EB500178
:10C1200061F35F00A0602846E4E7D4E90231A1EBA7
:10C130005302216801EB530039460CF011FED4E99B
:10C1400002C3A3EB5C03EA1AE368A3EB5C03D9190F
:10C1500020680CF005FE207AC143A06861F300005E
:10C16000A060D4E90210A0EB5100291AA06861F385
:10C170005F00A0602846BDE72DE9F04104460E4669
:10C18000154624B97A22BC49B3A00CF03EFD2046E6
:10C19000FFF782FFE1680F1AE068A84203D2E06867
:10C1A000281A0644E568D4E90210A0EB5100A84221
:10C1B00018D9A268216801EB52002A4631460CF0DA
:10C1C000CFFDA06805EB500161F35F00A060BD42A8
:10C1D00005D9A0684108606861F35F006060284687
:10C1E000BDE8F081D4E90231A1EB5302216801EBF3
:10C1F000530031460CF0B4FDD4E902C3A3EB5C0359
:10C20000EA1AE368A3EB5C03991920680CF0A8FD17
:10C21000207AC143A06861F30000A060D4E9021055
:10C22000A0EB5100291AA06861F35F00A060BD4235
:10C2300011D9A06840086168B0EB510F05DC207986
:10C24000C143606861F300006060A06841086068F5
:10C2500061F35F0060602846C2E72DE9F0410446C3
:10C260000F46154624B9B72284497BA00CF0CDFCBB
:10C270002046FFF711FF064616B90020BDE8F08101
:10C28000AE4200D235466168E068A0EB5100A8429A
:10C290000FD9D4E9000200EB52012A4638460CF0CF
:10C2A0005FFD606805EB500161F35F006060284648
:10C2B000E4E76368E068A0EB5302206800EB5301F9
:10C2C00038460CF04DFDD4F804C0E368A3EB5C03E2
:10C2D000EA1AE368A3EB5C03D81921680CF040FD6F
:10C2E0002079C143606861F3000060606168E068C4
:10C2F000A0EB5100291A606861F35F006060284676
:10C30000BCE770B504460E4624B9EB225C4952A046
:10C310000CF07BFC002030602046FFF7BDFE054698
:10C320000DB9002070BDD4E9000100EB5100306070
:10C330006168E068A0EB5100A84207D9606805EB8E
:10C34000500161F35F0060602846EBE76168E068D8
:10C35000A0EB51052079C143606861F30000606083
:10C36000207900F0010060602846DBE770B50446E4
:10C370000D462CB94FF48972424937A00CF045FCA8
:10C380002046FFF789FEE168081A00D170BDA16858
:10C39000206800EB51000570E068401EA168B0EB1A
:10C3A000510F0AD1207AC143A06861F30000A06058
:10C3B000207A00F00100A06006E00121A06801EBF6
:10C3C000500161F35F00A0600120DFE770B5044613
:10C3D0000E462CB940F235122B491FA00CF015FC6B
:10C3E0002046FFF721FE0546A168206800EB5100BA
:10C3F0000670E068401EA168B0EB510F18D1207A9A
:10C40000C143A06861F30000A060207A00F0010041
:10C41000A060012D1BD12079C143606861F3000049
:10C420006060A0684108606861F35F0060600EE0D2
:10C430000121A06801EB500161F35F00A060012DB4
:10C4400005D1A0684108606861F35F006060012069
:10C4500070BD0000A92A0500726220213D205254BF
:10C460005F4E554C4C00000073697A65203E2030C9
:10C4700000000000BC2A0500CE2A0500E62A0500BF
:10C48000F82A05000B2B0500212B050070B504468A
:10C490000D4634B94FF4AE723D49AFF244000CF092
:10C4A000B4FB2046FFF7F8FD08B9002070BDD4E9C1
:10C4B000000100EB510000782870E068401E6168C0
:10C4C000B0EB510F0AD12079C143606861F30000DD
:10C4D0006060207900F00100606006E00121606882
:10C4E00001EB500161F35F0060600120DEE710B5F1
:10C4F000044634B940F297122649AFF2A4000CF07A
:10C5000084FB606820F001006060207900F0010089
:10C510006060A06820F00100A060207A00F00100B7
:10C52000A06010BD70B5044634B94FF4D7721A49F3
:10C53000AFF2CC000CF069FB24F0070410200CF0E3
:10C540002CFD064606B90FE020460CF026FD0546F8
:10C5500025B930460CF065FE002605E02246294646
:10C560003046FFF776FD00BF304670BD10B504467B
:10C5700034B940F2CB120949AFF224100CF045FB5C
:10C5800020680CF04EFE20460CF04BFE10BD000063
:10C590003D2B0500532B0500672B05007C2B050068
:10C5A0002DE9F0470546894616461F46A846B8F1CC
:10C5B000000F04D11622FA49FAA00CF026FB3446EB
:10C5C0000CB1082F02D00020BDE8F0872168D8F810
:10C5D000480082682846904720713846F4E72DE9E4
:10C5E000F0470546894616461F46A846B8F1000F93
:10C5F00004D12622EF49EBA00CF007FB34460CB126
:10C60000082F02D00020BDE8F08722792168D8F8F1
:10C6100048004368284698473846F4E72DE9F0413A
:10C620000546884616462F4627B93722E249DDA03F
:10C630000CF0EBFA34461CB96FF0FE00BDE8F08157
:10C6400022792168B86C0368284698470020F5E7EE
:10C6500070B504460E4615461920D84908770020C3
:10C6600048628862C86208634863D5488863D548D1
:10C67000C863D54808640846866445640322214699
:10C68000FEF7FDFC002070BDF8B504460D461646C9
:10C690001F46CA48806C20B96B22CC49CCA00CF054
:10C6A000B4FAC648806CC06850B1C4480097806C2A
:10C6B00033462A462146D0F80CC0C048E047F8BDB2
:10C6C0006FF02C00FBE710B50446BC48806C20B925
:10C6D0007522C549BEA00CF098FAB848806C006974
:10C6E00030B1B648806C21460269B448904710BD0D
:10C6F0006FF02C00FBE770B504460D46AF48806C28
:10C7000020B97F22B949B2A00CF07FFAAB48806C07
:10C71000406938B1A948806C2A4621464369A74838
:10C72000984770BD6FF02C00FBE770B504460D46CE
:10C73000A248806C20B98A22AD49A5A00CF065FA08
:10C740009E48806C2A46214603689C48984770BDE5
:10C7500070B504460D469948806C20B99022A549D1
:10C760009BA00CF052FA9548806C2A4621464368FB
:10C770009248984770BD10B504469048806C20B927
:10C7800096229D4992A00CF040FA8C48806C21467C
:10C7900082688A48904710BD10B504468748806C6F
:10C7A00020B99D2295498AA00CF02FFA8348806C0D
:10C7B000806910B96FF02C0010BD8048806C8169D1
:10C7C00020468847F8E710B504462046FFF7E4FF07
:10C7D00010BD10B58AA00CF0F5F98EA00CF0F2F99E
:10C7E00099480CF0EFF999A00CF0ECF9A3A00CF02B
:10C7F000E9F9AEA00CF0E6F9B6480CF0E3F9B6A002
:10C800000CF0E0F9C0A00CF0DDF9C7A00CF0DAF9EB
:10C81000C8A0FFF7C1FF10BD70B506460C46032E39
:10C8200002DAFFF7D6FF70BDA068FFF7CCFF054620
:10C83000002D06DAC0A0A1680CF0C4F9FFF7C9FF0B
:10C84000F1E72A46C3A0A1680CF0BCF900BFEAE7F3
:10C850002DE9F04107460C46042F03DAFFF7B9FF34
:10C86000BDE8F081A06807F065F960B9A068FFF73E
:10C87000AAFF0646002E0ADAAFA0A1680CF0A2F9C2
:10C88000FFF7A7FFECE7A06825F0E0F80646B4A0A4
:10C89000E1680CF058FB08B900251EE0B2A0E16881
:10C8A0000CF051FB08B9012517E0B1A0E1680CF0CC
:10C8B0004AFB08B9022510E0B1A0E1680CF043FB87
:10C8C00008B9032509E0B2A0E1680CF03CFB08B907
:10C8D000042502E0FFF77DFFC2E7E9B23046FFF72B
:10C8E00024FF00BFBCE72DE9F04106460C46032EAD
:10C8F00003DAFFF76EFFBDE8F081A06807F01AF9D0
:10C9000060B9A068FFF75FFF0546002D0ADA8AA02C
:10C91000A1680CF057F9FFF75CFFECE7A06825F081
:10C9200095F805462846FFF726FFC7B2012F04D128
:10C9300029469AA00CF046F903E029469BA00CF08A
:10C9400041F900BFD7E72DE9F04107460C46042F17
:10C9500003DAFFF73EFFBDE8F081A06807F0EAF8D0
:10C9600060B9A068FFF72FFF0546002D0ADA72A014
:10C97000A1680CF027F9FFF72CFFECE7A06825F081
:10C9800065F805468DA0E1680CF0DDFA20B18DA0B8
:10C99000E1680CF0D8FA08B9012624E114E100009E
:10C9A000922B050070696E20213D2052545F4E5538
:10C9B0004C4C00009C2B0500A72B050008C900204B
:10C9C000A1C50200DFC502001DC60200B42B050090
:10C9D0005F68775F70696E2E6F707320213D205203
:10C9E000545F4E554C4C0000C62B0500D82B05005B
:10C9F000EA2B0500F62B0500032C05000F2C050083
:10CA000070696E205B6F7074696F6E5D204750496E
:10CA10004F0A000020202020206E756D3A20202033
:10CA20002020206765742070696E206E756D6265C8
:10CA3000722066726F6D2068617264776172652022
:10CA400070696E0A00000000FC4C050020202020C8
:10CA50002020202020202020202020652E672E202E
:10CA60004D5348203E70696E206D6F6465204750BD
:10CA7000494F206F75747075740A000020202020C3
:10CA800020726561643A2020202020726561642054
:10CA900070696E206C6576656C206F6620686172C7
:10CAA00064776172652070696E0A00002020202082
:10CAB0002020202020202020202020652E672E20CE
:10CAC0004D5348203E70696E207265616420475066
:10CAD000494F0A00504D0500202020202020202012
